:020000040800F2
:1000000008080020150200081D0200081F02000851
:100010002102000823020008250200080000000059
:10002000000000000000000000000000270200089F
:1000300029020008000000002B0200082D02000821
:100040002F0200082F0200082F0200082F020008CC
:100050002F0200082F0200082F0200082F020008BC
:100060002F0200082F0200082F0200082F020008AC
:100070002F0200082F0200082F0200082F0200089C
:100080002F0200082F0200082F0200082F0200088C
:100090002F0200082F0200082F0200082F0200087C
:1000A0002F0200082F0200082F0200082F0200086C
:1000B0003D22000851220008652200082F02000896
:1000C0002F0200082F0200082F0200082F0200084C
:1000D0002F020008318D00082F020008CD240008EF
:1000E0007D6600082F0200082F0200082F0200087A
:1000F0002F0200082F0200082F0200082F0200081C
:100100002F0200082F020008792200082F020008A1
:100110002F0200082F0200082F0200082F020008FB
:100120002F0200082F0200082F0200082F020008EB
:10013000DFF80CD009F0C8FA004800479501000824
:100140000808002080B501F0EBFD01F0FDFD4FF443
:10015000165008F09BFD4FF4165002F04DF941F691
:100160001F40002101F076FE02F0E0F907F054F89C
:1001700002F0A2FA03F0EAF903F018FA01F0E2FE45
:1001800001F04CFF01F09CFF01F0ECFFBDE8804066
:1001900007F01CB8FFF7D6FF40F27C1640F2340798
:1001A00040F278194FF00008C2F2000615A4C2F21E
:1001B0000007C2F2000900250AE0042808BF89F8F8
:1001C000008000BF012508F025FC0A2008F036FD5C
:1001D000316879B1002DF5D1204609F0D9FA30689F
:1001E0000F2809D00D28E8D138681828EADC053036
:1001F00006E000BF0025E6E738680628E2DB0538A0
:100200003860DFE7505332204B6579203D2025646C
:10021000000000000648804706480047FEE7FEE76A
:10022000FEE7FEE7FEE7FEE7FEE7FEE7FEE7FEE7A6
:10023000A11B00083101000840F080604EF60C510F
:1002400040F0FD70CEF200010860704710B5C17833
:1002500000294EF20011CEF200011AD04EF60C52D7
:10026000CEF200021268072323EA12220F23C2F102
:10027000040C23FA02F24378847890F800E003FA41
:100280000CF322401A43120101EB0E0383F8002302
:1002900000E080310078012300F01F0203FA02F22F
:1002A000C0F3421041F8202010BD00BF4FF680720D
:1002B000C1F6FF72114008434EF60851CEF200011C
:1002C0000860704700294EF61051CEF200010A680E
:1002D0000CBF22EA00001043086070474EF2100184
:1002E000CEF200010A68042822F0040208BF04329A
:1002F0000A607047A0F18040A0F584304FEAB0203A
:10030000062888BF704710B54AF2E021C0F6000108
:1003100051F820400121204600F084FA20460021B7
:10032000BDE8104000F07EBA80B50120012100F048
:1003300079FA01200021BDE8804000F073BA00BFC7
:100340002DE9F047CA7802F00F0CD30644BF8B7832
:100350004CEA030C09880B0625D082465AF8144B48
:1003600000F1100E00254FF001094FF00F08002793
:1003700006E000BF1E600137082F05F1040511D00B
:1003800009FA07F60E42F6D008FA05F324EA030349
:100390000CFA05F41C43282A5346EBD0482AEAD12C
:1003A0007346E7E70460B1F5807F38BFBDE8F087AA
:1003B000436800F1100E00F1140900254FF4807A13
:1003C0004FF00F08002705E034600137082F05F1D2
:1003D000040512D00AFA07F404EA0106A642F4D191
:1003E00008FA05F6B3430CFA05F63343282A4E46BD
:1003F000EAD0482AE9D17646E6E74360BDE8F087CF
:100400004FF6FF71C0F202410160704780680840FA
:1004100018BF0120704700BF806880B2704700BFDE
:10042000C068084018BF0120704700BFC06880B294
:10043000704700BF01617047416170471023002A77
:1004400008BF1423C1507047C160704701F5803266
:1004500082618161826181698069704740F2000C2C
:10046000C4F2010CDCF800304FF680721A4041EA09
:1004700000101043CCF80000704700BF1C21C4F2EC
:1004800020210860704700BFB0B50422C4F2010209
:10049000134602F1180E002848BF73461C6800F48A
:1004A0004013B3F5401F1FFA80FC06D1156824F0F5
:1004B000706325F07064146015E0C3020AD46FF015
:1004C0000F0303EA50430CFA03F324EA030343F057
:1004D000706308E0C0F30343032505FA03F324EA3D
:1004E000030343F070636FF00F0404EA50440029E3
:1004F0000CFA04F518BF2B43002848BF724613605E
:10050000B0BD00BF10B50C22082402EA810201F040
:10051000FC01C4F201044FF00F0C51F804E00CFA96
:1005200002F32EEA03030B510B5990401843085174
:1005300010BD00BFDC21C4F220210860704700001C
:1005400041F20000C4F202000168002241F0010102
:1005500001604168CFF6FF021140416001684FF62B
:10056000FF72CFF6F66211400160016821F480212C
:100570000160416821F4FE0141604FF41F01816078
:10058000704700BF41F20001C4F202010A68B0F5F1
:10059000803F22F480320A600A6822F480220A60D6
:1005A00005D0B0F5802F18BF70474FF4A0200A681F
:1005B00010430860704700BF81B041F20000C4F2F0
:1005C00002000021009100BF0168009A01320092F0
:1005D000009AB2F5A06F02D011F40031F4D0006897
:1005E000C0F3404001B07047420941F20001012AC6
:1005F000C4F2020103D0022A14BF24312031096859
:1006000000F01F0021FA00F000F00100704700BF69
:1006100041F20001C4F202010A6822F0F80242EA43
:10062000C0000860704700BF0021C4F2422108608A
:10063000704700BF41F20402C4F20202136808438B
:1006400023F47C1318431060704700BF6021C4F28C
:1006500042210860704700BF41F20401C4F2020168
:100660000A6822F0030210430860704741F2040058
:10067000C4F20200006800F00C00704741F204016F
:10068000C4F202010A6822F0F002104308607047C9
:1006900041F20401C4F202010A6822F4E06210434C
:1006A0000860704741F20401C4F202010A6822F4B2
:1006B000605242EAC0000860704700BF002941F262
:1006C0000901C4F202010A780CBF22EA00001043BB
:1006D00008707047D821C4F242210860704700BFFB
:1006E00041F20401C4F202010A6822F440421043BC
:1006F0000860704741F22001C4F202010022012883
:100700000A700A7003D0042818BF704705200870CB
:10071000704700BF40F28041C4F242210860704738
:1007200041F22001C4F202010A68104308607047D8
:1007300040F23C41C4F242210860704710B541F2DA
:100740000404C4F20204226802F00C02082A41F2F6
:100750000022C0F27A021CD12368D4F800C0C3F38F
:10076000834E5FEACC330EF1020C06D440F6001241
:10077000C0F23D020CFB02F20BE023689B0302D4A3
:100780000CFB02F205E040F60012C0F23D020CFB49
:1007900002F2026022684AF21C33C2F30312C0F66E
:1007A00000039A5C0168D14041602268C2F30222D2
:1007B0009A5C21FA02F282602268C2F3C2229A5C39
:1007C0004AF20833D140C1602268C0F60003C2F388
:1007D00081329A5CB1FBF2F1016110BD002941F256
:1007E0001401C4F202010A680CBF22EA000010439F
:1007F00008607047002941F21801C4F202010A683A
:100800000CBF22EA0000104308607047002941F243
:100810001C01C4F202010A680CBF22EA0000104366
:1008200008607047002941F20C01C4F202010A6815
:100830000CBF22EA0000104308607047002941F213
:100840001001C4F202010A680CBF22EA0000104342
:100850000860704740F24041C4F24221086070478E
:100860004C21C4F242210860704700BF41F20701E9
:10087000C4F202010870704741F22400C4F2020081
:10088000016841F080710160704700BF41F20801CA
:10089000C4F202010968084018BF0120704700BF78
:1008A00041F20A01C4F202010870704780B541F6B6
:1008B000FF71C4F20001884228DD44F2FF31C4F226
:1008C000010188423FDD44F6FF31C4F20101884254
:1008D0006EDD44F60041C4F20101884200F0B580AB
:1008E00045F20001C4F20101884200F0B68045F2F1
:1008F0000041C4F20101884218BF80BD4FF40010CE
:100900000121FFF78FFF4FF40010D7E040F6FF7191
:10091000C4F20001884232DC40F2FF71C4F20001EF
:1009200088425ADCB0F1804F00F09F8040F20041D5
:10093000C4F20001884240F0D08002200121FFF77C
:100940007DFF0220C4E043F2FF31C4F2010188427E
:1009500055DC42F20001C4F20001884200F08B80B5
:1009600042F60041C4F20101884240F0B6804FF4E3
:1009700000600121FFF756FF4FF400609EE041F256
:10098000FF71C4F2000188424DDC41F20001C4F263
:100990000001884277D041F20041C4F20001884250
:1009A00040F09B8020200121FFF748FF20208FE0AE
:1009B00044F20041C4F2010188426AD044F60001C9
:1009C000C4F20101884240F088804FF48020012168
:1009D000FFF728FF4FF4802070E040F60001C4F2DA
:1009E000000188425DD040F60041C4F20001884217
:1009F00073D108200121FFF721FF082068E043F2AE
:100A00000041C4F20101884251D044F20001C4F215
:100A10000101884261D14FF480300121FFF702FFCC
:100A20004FF480304AE041F60001C4F200018842F0
:100A300049D041F60041C4F2000188424DD18020E6
:100A40000121FFF7FBFE802042E04FF4002001214E
:100A5000FFF7E8FE4FF4002030E04FF48010012152
:100A6000FFF7E0FE4FF4801028E001200121FFF79E
:100A7000E5FE01202CE04FF480700121FFF7DEFE3F
:100A80004FF4807024E010200121FFF7D7FE1020E2
:100A90001EE04FF400300121FFF7C4FE4FF4003098
:100AA0000CE004200121FFF7C9FE042010E04FF400
:100AB00000500121FFF7B6FE4FF400500021BDE8C1
:100AC0008040FFF7AFBE40200121FFF7B7FE402076
:100AD0000021BDE88040FFF7B1BE80BD40F6FF3386
:100AE000B0F800C0C4F2000398420FDCB0F1804FB0
:100AF0001ED040F20043C4F20003984218D040F6E2
:100B00000003C4F20003984212D016E040F60043FE
:100B1000C4F2000398420BD043F20043C4F2010335
:100B2000984205D042F60043C4F20103984204D132
:100B30004B882CF0700243EA020C41F2004240F470
:100B40008063C4F20002934204D0CA882CF440733C
:100B500042EA030CA0F800C08A888285A0F1804296
:100B6000A2F596320B884FEAB222072A038507D8EE
:100B7000012303FA02F212F0E50F1CBF097A018685
:100B800001218182704700BFB0B5028C22F00102C2
:100B90000284038C8288B0F818C00C8923F0020309
:100BA0002343A0F180444D88A4F59634B1F800E0C9
:100BB0004FEAB424072C43EA050313D8012505FAAC
:100BC00004F414F0E50F0DD04C8923F00C0324F04D
:100BD00004048D8823438C892B4322F44072CD89F1
:100BE00022432A432CF0730545EA0E0582800583D3
:100BF000C98881860384B0BDB0B5028C22F0100292
:100C00000284038C8288B0F818E00C894D88B1F812
:100C100000C02C4343F2004523F02003C4F2010539
:100C2000A84243EA041305D042F60044C4F201048A
:100C3000A04211D14C896FF0400523F0C00305EAB2
:100C400004148D88234343EA05138C89CD8922F44B
:100C500040622C4342EA84022EF4E64545EA0C2524
:100C600082800583C98801870384B0BDB0B5028C3A
:100C700022F480720284038C8288B0F81CE00C8914
:100C80004D88B1F800C02C4343F2004523F40073B3
:100C9000C4F20105A84243EA042305D042F6004409
:100CA000C4F20104A04211D14C8940F2FF45240254
:100CB00023F44063AC438D88234343EA05238C89A6
:100CC000CD8922F440522C4342EA04122EF07305DF
:100CD00045EA0C0582808583C98881870384B0BD7D
:100CE00070B5028C43F2004622F480520284038CD9
:100CF0008288B0F81CE0B1F800C00C894D88C4F2BD
:100D00000106B04205D042F60046C4F20106B042E8
:100D100004D18E8922F4804242EA86122EF4E646FD
:100D200046EA0C268280868323F400532C43C9882C
:100D300043EA0432A0F84010028470BDF0B50A887E
:100D4000082A29D0042A52D0002A7BD14B88B1F836
:100D500004C0B1F808E0028C40F6FF3622F0010230
:100D60000284024632F8184F058CC4F20006B042E5
:100D70004FF6FC7600F38F80B0F1804F00F09E803C
:100D800040F20047C4F20007B84200F0978040F6F6
:100D90000007C4F200078EE04B88B1F804C0B1F838
:100DA00008E0028C40F6FF3722F48072028402468B
:100DB00032F81C4F058C6FF44056C4F20007B8425D
:100DC00006F5145600F38B80B0F1804F00F0998047
:100DD00040F20047C4F20007B84200F0928040F6AB
:100DE0000007C4F20007B84200F08B808EE04B8809
:100DF000B1F804C0B1F808E0028C40F6FF3722F0E9
:100E000010020284024632F8184F058C6FF0030678
:100E1000C4F20007B842A6F1AD0600F38880B0F135
:100E2000804F00F0968040F20047C4F20007B842BD
:100E300000F08F8040F60007C4F20007B84200F0CF
:100E400088808AE04B88B1F804C0B1F808E0028CD1
:100E500040F6FF3622F480520284024632F81C4FDC
:100E6000058CC4F20006B04246F6FF5600F38980B6
:100E7000B0F1804F00F0978040F20047C4F20007C5
:100E8000B84200F0908040F60007C4F20007B84274
:100E900000F089808AE040F60047C4F20007B842BB
:100EA0000CD042F60047C4F20107B84206D043F224
:100EB0000047C4F20107B84218BF083E35402B4333
:100EC00024F0F3044CEA0E1743F001032743078391
:100ED0000384C988038B23F00C0303837AE040F674
:100EE0000047C4F20007B8420BD043F20047C4F2F7
:100EF0000107B84205D042F60047C4F20107B842E4
:100F000004D14CF6FF761B0206F5345635402B43D0
:100F100024F0F3044CEA0E1743F4807327438783CD
:100F20000384C988838B23F00C03838352E040F64B
:100F30000047C4F20007B8420BD043F20047C4F2A6
:100F40000107B84205D042F60047C4F20107B84293
:100F500003D14FF6FC761B012D3E35402B4340F666
:100F6000FF452C4044EA0E3743F0100347EA0C27B4
:100F700007830384C988038B090223F44063038336
:100F800028E040F60047C4F20007B8420BD043F215
:100F90000047C4F20107B84205D042F60047C4F248
:100FA0000107B84202D14CF6FF761B0335402B43B4
:100FB00040F6FF454FEA0E372C4047EA0C2743F432
:100FC0008053274387830384C988838B090223F4D2
:100FD00040638383108808431080F0BD028B22F0A9
:100FE0000C020283028B114301837047028B22F4AF
:100FF00040620283028B42EA01210183704700BFF5
:10100000828B22F00C028283828B11438183704792
:10101000828B22F440628283828B42EA01218183A7
:10102000704700BF2DE9F04F4E888D884FF0010BBF
:10103000B6FA86F2012D08BF4FF0020B0C88570953
:10104000B1F808A0038C4FF6FC7E4FF6FC784FEA0F
:10105000470CE4B123F01003038440F6FF39048BFE
:10106000078CC4F200094845AEF1AD032ADCB0F1AB
:10107000804F39D040F20042C4F20002904233D097
:1010800040F60002C4F2000290422DD02FE023F07F
:101090000103038440F6FF39048B078CC4F2000976
:1010A000484577DCB0F1804F00F0888040F2004383
:1010B000C4F20003984200F0818040F60003C4F2BD
:1010C000000377E040F60042C4F2000290420BD0E9
:1010D00043F20042C4F20102904205D042F60042BF
:1010E000C4F20102904202D13601AEF12D0307EAAB
:1010F000030240F6FF432340324343EA0A3342F0FF
:10110000100243EA052303830284C988028B484501
:1011100022F440620283028B42EA01220283028CA3
:1011200022F001020284048B058C0DDCB0F1804FAB
:101130001ED040F20042C4F20002904218D040F6A5
:101140000002C4F200020FE040F60042C4F20002C6
:1011500090420DD042F60042C4F20102904207D004
:1011600043F20042C4F20102904218BFAEF10808F7
:1011700005EA080224F0F30342EA0C0243EA0A13E8
:1011800042F001025B4403830284028B22F00C02D2
:1011900002836CE040F60043C4F2000398420DD095
:1011A00042F60043C4F20103984207D043F20043E1
:1011B000C4F20103984218BFAEF1080807EA080319
:1011C00024F0F304334344EA0A1443F001032C43AC
:1011D00004830384C988038B484523F00C030383ED
:1011E000038BAEF1AD0643EA01030383038C23F0C6
:1011F00010030384048B058C0FDCB0F1804F1ED0EC
:1012000040F20043C4F20003984218D040F60003B5
:10121000C4F20003984212D015E040F60043C4F235
:10122000000398420BD043F20043C4F201039842FA
:1012300005D042F60043C4F20103984203D14FEABD
:101240000C1CAEF12D0640F6FF4705EA06032740C9
:1012500043EA0C0347EA0A3743F0100347EA0B223C
:1012600002830384028B090222F440620283028B10
:1012700011430183BDE8F08FB1F800C04B888A8824
:1012800043EA0C0343EA020CCB880A8943EA0C03C5
:101290001A434B8989891A431143A0F844107047B7
:1012A00000220021CFF6FF720180C180C0F8022029
:1012B000017270470021C160816041600160704728
:1012C000002101220160426001817047002181817B
:1012D00081604160016070470288002918BF0121C8
:1012E00022F0010211440180704700BFB0F8442091
:1012F000002918BF01216FF3DF3242EAC131A0F8A3
:1013000044107047002A82890CBF22EA0101114370
:1013100081817047818270471143A0F8481070475F
:10132000002A82890CBF22EA0101114381817047A2
:10133000018921F007010181704700BF028922F075
:10134000700211430181018941F007010181704759
:10135000028922F0700211430181704770B5058C3B
:1013600060294FF6FC7C1DD125F01005058440F660
:10137000FF35B0F818E0048CC4F20005A842ACF1C7
:10138000AD0529DCB0F1804F38D040F20046C4F200
:101390000006B04232D040F60006C4F20006B04269
:1013A0002CD02EE025F00106068440F6FF35B0F87B
:1013B00018E0048CC4F20005A8422FDCB0F1804F85
:1013C00040D040F20045C4F20005A8423AD040F6B1
:1013D0000005C4F2000531E040F60046C4F2000604
:1013E000B0420BD043F20046C4F20106B04205D031
:1013F00042F60046C4F20106B04202D11201ACF13D
:101400002D0504EA0506324340F6FF4642F010027D
:101410000EEA06041D034FF480731CE040F60045FD
:10142000C4F20005A8420DD042F60045C4F2010501
:10143000A84207D043F20045C4F20105A84218BFF4
:10144000ACF1080C04EA0C06324342F001022EF023
:10145000F3051C01012344EA050633430383028498
:10146000028922F0700211430181018941F00701D4
:10147000018170BDB0F808C011435FFA8CFC41EAED
:10148000032141EA0C010181018941F077010181C9
:10149000704700BFB0F808C011435FFA8CFC41EA06
:1014A000032141EA0C010181704700BFB0F808C078
:1014B00011435FFA8CFC41EA032141EA0C010181EE
:1014C000018941F480410181704700BF018582821A
:1014D000704700BF028822F07002114301807047FC
:1014E000B0B5B0F808C0B0F818E0058C2CF00704CF
:1014F00021434FF6FC4404EA0E0425F0220542EA9B
:10150000031204F201142A43018104830284B0BD52
:10151000028B22F07002114301837047028B22F488
:10152000E04242EA01210183704700BF828B22F032
:101530007002114381837047828B22F4E04242EAB9
:1015400001218183704700BF0288002918BF012153
:1015500022F0800242EAC11101807047828800298E
:1015600018BF012122F0040242EA81018180704704
:101570008288002918BF012122F0080242EAC10135
:10158000818070478288002918BF012122F0010262
:1015900011448180704700BF028B22F00802114382
:1015A00001837047028B22F4006242EA0121018329
:1015B000704700BF828B22F008021143818370477D
:1015C000828B22F4006242EA01218183704700BFCE
:1015D000028B22F00402114301837047028B22F434
:1015E000806242EA01210183704700BF828B22F0B2
:1015F0000402114381837047828B22F4806242EAA5
:1016000001218183704700BF028B22F080021143C9
:1016100001837047028B6FF3DF3242EA01210183BD
:10162000704700BF828B22F0800211438183704794
:10163000828B6FF3DF3242EA01218183704700BF62
:10164000028C22F00202114301847047028C22F0C6
:101650000802114301847047028C22F0200242EA02
:1016600001110184704700BF028C22F0800242EA1F
:1016700001110184704700BF028C22F4007242EA1B
:1016800001210184704700BF028C22F4006242EA0B
:1016900001210184704700BF028C22F4005242EA0B
:1016A00001310184704700BF80B54FF0010CB0F8E4
:1016B00020E00CFA01F32EEA03030384038C02FA00
:1016C00001F11943018480BD80B54FF0040CB0F8DE
:1016D00020E00CFA01F32EEA03030384038C02FAE0
:1016E00001F11943018480BD10B54FF0010CB0F831
:1016F00020E00CFA01F32EEA030C6FF0080300F16E
:1017000018041942A0F820C00AD0081F80B241086E
:10171000635804EB500023F4E0431202635007E0E7
:101720004B0853F804C004EB51002CF07001195120
:10173000016892B21143016010BD00BF0288002908
:1017400018BF012122F0020242EA410101807047E4
:101750000288002918BF012122F0040242EA810117
:10176000018070478288002918BF012122F0800281
:1017700042EAC11181807047028822F0080202808B
:101780000288114301807047828822F070028280B3
:101790008288114381807047028922F0070202810A
:1017A0000289114301817047028922F0800202817F
:1017B0000289114301817047818470478185704798
:1017C000818670470187704781877047A0F8401075
:1017D000704700BF028822F44072028002881143E1
:1017E00001807047808E7047008F7047808F7047F0
:1017F000B0F84000704700BF808C7047008D704784
:10180000008A084018BF0120704700BFC943018209
:10181000704700BF028A80890A4000EA010018BFB1
:101820000122002818BF012010407047C9430182DF
:101830007047000080B544F6FF31C4F200018842D1
:101840001EDD44F60041C4F2000188422CD045F26E
:101850000001C4F2000188422ED043F60001C4F218
:101860000101884218BF80BD4FF480400121FEF77E
:10187000D9FF4FF480400021BDE88040FEF7D2BF81
:1018800044F20041C4F2000188421DD044F6000138
:10189000C4F20001884223D14FF480200121FEF7D9
:1018A000CDFF4FF4802016E04FF400200121FEF719
:1018B000C5FF4FF400200EE04FF480100121FEF729
:1018C000BDFF4FF4801006E04FF400300121FEF719
:1018D000B5FF4FF400300021BDE88040FEF7AEBFF9
:1018E00080BD00BF70B586B00446008A0D46C98829
:1018F00020F4405008432082A0894EF6F31108409E
:10190000A9882A896B89084310431843A081A08ABB
:10191000A98920F44070084301AEA0823046FEF74A
:101920000DFF43F6000106F10800C4F201018C42EC
:1019300008BF06F10C0000681922B4F90C105043DE
:101940002A680123B1F1FF3FC8BF022302FA03F165
:10195000B0FBF1F048F21F51C5F2EB11A0FB0123DF
:101960005A096FF0630302FB0300B4F90C3003263D
:10197000B3F1FF3FC8BF042600FA06F000F13200C1
:10198000A0FB01014FF00700C8BF0F2000EA511073
:1019900040EA0210208106B070BD00BF4FF416511E
:1019A00000224FF4402380E80E008281704700BF80
:1019B00080B5028A0B8822F4706C4A88B1F804E082
:1019C00043EA0C03C9881A4342EA0E02114301821A
:1019D00080BD00BF002141600160704782890029FD
:1019E00018BF012122F4005242EA4131818170473F
:1019F000C1F3421301F01F0C1421022B08BF102168
:101A0000012B4FF0010308BF0C21002A03FA0CF24E
:101A100043580CBF23EA02021A434250704700BFEA
:101A2000002A828A0CBF22EA010111438182704799
:101A3000028A22F00F020282028A11430182704759
:101A4000828922F4006282818289114381817047F8
:101A50008289002918BF012122F0020242EA4101D5
:101A600081817047028A22F020020282028A114399
:101A700001827047028A002918BF012122F48042A6
:101A800042EA8131018270476FF35F2181807047A4
:101A900080886FF35F207047818941F00101818167
:101AA000704700BF028BD2B20283028B42EA01214F
:101AB00001837047028B22F0FF020283028B1143E5
:101AC00001837047828A002918BF012122F0200279
:101AD00042EA411181827047828A002918BF0121A0
:101AE00022F0100242EA011181827047828A0029A5
:101AF00018BF012122F0080242EAC1018182704729
:101B00008289002918BF01216FF3DF3242EAC13117
:101B100081817047828A002918BF012122F4006266
:101B200042EAC12181827047828A22F004028282C5
:101B3000828A114381827047828A002918BF01215D
:101B400022F0020242EA4101818270470088084087
:101B500018BF0120704700BFC9430180704700BF14
:101B6000C1F34212022A06D0012A14BF00F1140266
:101B700000F10C0201E000F110021288008801F06F
:101B80001F03090ADA40C840104000F00100704706
:101B9000090A012202FA01F1C943018070470000DD
:101BA00082B041F20400C4F2020050F8041C00228A
:101BB00041F0010140F8041C0168CFF6FF0211401A
:101BC000016050F8041C4FF6FF72CFF6F662114028
:101BD00040F8041C50F8041C21F4802140F8041C37
:101BE000016821F4FE0101604FF41F0141600021F2
:101BF0000191009150F8041C41F4803140F8041C1C
:101C000050F8041C01F40031009101990131019157
:101C1000009919B90199B1F5A06FF1D150F8041CE0
:101C2000890354BF0021012100910099012936D177
:101C300042F20001C4F202010A6842F010020A6096
:101C40000A6822F007020A600A6842F002020A608B
:101C50000168016001680160016841F48061016010
:101C6000016821F47C110160016841F4E811016010
:101C700050F8041C41F0807140F8041C50F8041C1A
:101C80008901FBD5016821F003010160016841F081
:101C900002010160016801F00C010829FAD14EF639
:101CA0000850CEF200004FF00061016002B07047B2
:101CB00041F20400C4F20200016801F00C0108299D
:101CC00041F20021C0F27A0117D102680368C2F321
:101CD0008342DB0302F1020205D440F60011C0F298
:101CE0003D01514309E003689B0301D4514304E0E3
:101CF00040F60011C0F23D01514340F23802C2F2F9
:101D00000002116000684AF20C31C0F30310C0F603
:101D10000001085C116821FA00F0106070470000B3
:101D200080B582B010200121FEF764FD42F2000070
:101D3000C1F20300019041F20000C4F2010001A9C8
:101D4000FEF7FEFA02B080BD80B582B00820012106
:101D5000FEF750FD4FF48050ADF8040048208DF898
:101D6000070040F60040C4F2010001A9FEF7E8FABE
:101D700002B080BD70B582B0042001210426FEF7B8
:101D800039FD08200121FEF735FD10200121FEF765
:101D900031FD20200121FEF72DFD01200121FEF75C
:101DA00029FD40F20020C0F230000121FEF76CFB5B
:101DB000482043F200448DF807004FF48050C4F2ED
:101DC000010401ADADF80400A4F530502946FEF73A
:101DD000B7FA3320C1F203000190A4F52050294640
:101DE000FEF7AEFA41F23000ADF80400A4F5105051
:101DF0002946FEF7A5FAA4F500502946ADF804607F
:101E0000FEF79EFA40F2901048F2801248F28813D2
:101E1000C4F222200021C4F22122C4F22223016252
:101E2000116101601160196051614160516020468B
:101E30000021FFF7C9FC20460021FFF7C7FC204620
:101E40000021FFF7BDFC20460021FFF7BBFC02B0DC
:101E500070BD00BFB0B50C460546FFF78BFF4FF4D1
:101E600000500121FEF7C6FC10200121FEF7C2FC44
:101E700041F21800C4F20200016841F4005101600F
:101E8000016841F01001016041F20000C4F201005C
:101E9000416821F0FF014160416841F0BB014160B0
:101EA000016821F07F410160016841F03B41016020
:101EB00043F21840C4F2010085820482018841F097
:101EC00060010180018841F4C0410180818841F0B6
:101ED00060018180818841F4C0418180018841F0A6
:101EE00008010180018841F400610180818841F08E
:101EF00008018180818841F400618180018941F07D
:101F000001010181018941F010010181018941F440
:101F100080710181018941F4805101810021818317
:101F2000018481840185818D41F4004181854FF4D4
:101F3000004120F8181C30F8181C41F0010120F86D
:101F4000181CB0BD10B54FF6000040F60401CFF6E6
:101F5000FF70C4F201010A580C2442F480720A5046
:101F600041F21800C4F202004268C4F2000442F0D8
:101F7000010242600268012342F00402026002682A
:101F800042F00802026008681C2220F070400860DD
:101F9000086840F08040086040F60040C4F201004C
:101FA000016821F470410160016841F480410160E1
:101FB0002088032140F001002080208840F040006C
:101FC0002080012006F086FD0020A0834FF6FF70E0
:101FD00020844FF08040018821F440710180018805
:101FE00021F060010180A18941F00101A181A18955
:101FF00041F48071A181A18A21F00201A182A18A0C
:1020000021F02001A18234F8041C41F0030124F8DE
:10201000041C018841F00101018010BD10B541F29E
:102020001800C4F20200416840F2004441F002018D
:1020300041600168C4F2000441F00801016040F60B
:102040000000C4F2010001681D2221F07F410160FF
:102050000168012341F088410160A089032140F01B
:102060000100A081A08940F04000A081012006F07D
:1020700031FD002020854FF6FF70A085208820F4D8
:1020800040702080208820F060002080208B40F06D
:1020900001002083208B40F480702083208C20F06E
:1020A00002002084208C20F020002084208940F031
:1020B00003002081208840F00100208010BD00BF77
:1020C00010B541F21800C4F20200416840F6000465
:1020D00041F0040141600168C4F2000441F00801CC
:1020E000016040F60040C4F2010001681E2221F0A8
:1020F0007F4101600168012341F088410160A089AE
:10210000032140F00100A081A08940F04000A0819F
:10211000012006F0DFFC002020854FF6FF70A0852F
:10212000208820F440702080208820F060002080EB
:10213000208B40F001002083208B40F480702083AE
:10214000208C20F002002084208C20F020002084AD
:10215000208940F003002081208840F00100208089
:1021600010BD00BF10B541F21800C4F20200416872
:1021700040F6004441F0080141600168C4F20004E7
:1021800041F00401016040F60000C4F20100016862
:10219000322221F0FF0101600168012341F0440176
:1021A0000160A089032140F00100A081A08940F0D6
:1021B0004000A081012006F08DFC002020854FF614
:1021C000FF70A085208820F440702080208820F0B7
:1021D00060002080208B40F001002083208B40F4A1
:1021E00080702083208C20F002002084208C20F03E
:1021F00020002084208940F003002081208840F0C6
:102200000100208010BD00BF0238032884BF0020D9
:1022100070472421C4F20001DFE800F00A0205083B
:1022200001F5806104E001F5006101E001F5406124
:10223000B1F9000000220A80704700BF1020C4F2EC
:1022400000000188018821F001010180704700BF72
:1022500040F21040C4F200000188018821F0010121
:102260000180704740F61000C4F200000188018828
:1022700021F001010180704740F61040C4F20000D7
:102280000188018821F0010101807047B0B5082064
:1022900007F03AFF40F2AC15C2F200050446286090
:1022A000082007F031FF2060606028B94AF65170BD
:1022B000C0F6000007F05EFF28680021006841605A
:1022C000B0BD00BF70B540F2A415C2F200052E6883
:1022D0000A2E07DB4AF66D70C0F60000BDE87040BC
:1022E00007F048BF0446082007F00EFF40F2AC118B
:1022F000C2F20001096804700A6808604260701C3C
:10230000286070BDB0B540F2AC14C2F20004206881
:10231000D0E90010814212D00D4649688142FBD1BC
:102320000021696007F0C8FE40F2A4112068C2F2E3
:1023300000010A6845602878013A0A60B0BD02A031
:1023400007F018FF0020B0BD457220303030323A1F
:1023500020517565756520656D707479210D0000DB
:1023600040F2AC10C2F200000068D0E90010401A40
:1023700018BF0120704700BFB0B540F2AC10C2F2E8
:10238000000000680568686840B109A42978204603
:1023900007F0FEF96D6868680028F7D140F2A410D4
:1023A000C2F20000016804A0BDE8B04007F0F0B937
:1023B00025632C2000000000517565756520736948
:1023C0007A65202564200D0A0000000010B544F64F
:1023D0000004C4F2000401462046FFF755FB00BF8D
:1023E00020464021FFF7B2FB0128F9D120464021C9
:1023F000BDE81040FFF7B0BBF0B587B00546102030
:102400000121FEF7F7F94FF480200121FEF7FEF9D4
:102410001020C0F214000121FEF736F844F6000443
:1024200040F20040C4F20004C1F6030004F548463F
:1024300006AF069030463946FDF782FF4FF4006044
:10244000ADF8180004208DF81B0030463946FDF722
:1024500077FF4FF4402002950025049002A9204602
:102460000395ADF81450FFF73DFA20464021FFF7E1
:1024700073FB204640F225510122FFF7B9FA2046AE
:102480000121FFF7ABFA40F22720C0F203100190C0
:1024900001A8FDF7DBFE082007F036FE40F2AC167F
:1024A000C2F2000604463060082007F02DFE2060CE
:1024B000606028B94AF65170C0F6000007F05AFE75
:1024C00030680068456007B0F0BD00BF70B544F6E5
:1024D0000004C4F20004204640F22551FFF740FBFF
:1024E000002808BF70BD2046FFF7D2FA40F2A415BD
:1024F000C2F200052E680A2E07DB4AF66D70C0F6A0
:102500000000BDE8704007F035BE0446082007F023
:10251000FBFD40F2AC11C2F20001096804700A68C8
:1025200008604260701C286070BD000041F2040128
:10253000C4F20201486940F00400486140F600001E
:10254000C4F20100026822F470020260486940F49B
:1025500000704861886840F400708860886820F4E2
:1025600000708860086820F4404008600A6842F201
:10257000084042F40042C4F201000A6050F8041C12
:102580004FF6FF72C0F2F002114040F8041C50F800
:10259000041C40F8041C50F8041C21F4807140F81D
:1025A000041C016821F002010160016821F460212E
:1025B0000160016841F460210160016841F480110B
:1025C0000160016821F400610160416A21F4700139
:1025D0004162416A00214162816821F47001816099
:1025E000816841F460318160016841F0010101605E
:1025F000016841F00801016001680907FCD4016825
:1026000041F00401016000BF01684907FCD4704734
:1026100042F23441C4F201010A6822F01F020A604A
:102620000A681043086051F82C0C40F4800041F80F
:102630002C0C00BF51F8340C8007FBD5886980B2A0
:10264000704700BF80B542F23440C4F20100016817
:1026500021F01F010160016841F00501016050F89F
:102660002C1C41F4800140F82C1C00BF50F8341C95
:102670008907FBD5806980B206F076FE46F2666374
:10268000C4F20A034FF0663206F047FD0023C4F29D
:102690002603002206F041FD0023C4F25903002264
:1026A00006F03BFD0023C3F63073002206F035FD33
:1026B00006F080FE80BD000041F21800C4F2020066
:1026C000016841F00801016040F60440C4F20100D5
:1026D000016821F47F410160016841F44C510160BF
:1026E000704700BFB0B540F60440C4F20100016875
:1026F00048F22C1521F4704101600168C4F22125D3
:1027000041F4405101600120C5F88000296800248F
:1027100039B1E867012006F07BFAC5F880402868E7
:1027200008B12046B0BD0120012406F071FA002056
:10273000E8672046B0BD00BFB0B540F60440C4F223
:102740000100016848F2A81421F470410160016899
:10275000C4F2212441F440510160002020606060F7
:102760000120012506F054FA256001206560BDE8CE
:10277000B04006F04DBA00BF70B540F60444C4F254
:102780000104206848F2A81520F4704020602068F9
:10279000C4F2212540F400402060012601206E6033
:1027A00006F036FA01202E6006F032FA55F87C0C5D
:1027B00050B10026322E0BD20120013606F028FA45
:1027C00055F87C0C0028F5D100202860012070BD50
:1027D0002068012620F470402060206840F44050BA
:1027E0002060002401202C606C6006F011FA0120AA
:1027F0002E606E6006F00CFA204670BD70B548F28F
:10280000A814C4F22124002540F604402560C4F237
:1028100001000168012621F470410160016841F462
:10282000405101600120656006F0F2F90120266048
:1028300006F0EEF9256070BD70B548F2A814C4F238
:102840002124002540F604402560C4F201000168FF
:10285000012621F470410160016841F4405101609A
:102860000120666006F0D4F90120266006F0D0F958
:10287000256070BD2DE9F04140F60441C4F201012C
:102880000A68044622F470400860086848F2A815F7
:10289000C4F2212540F440504FF0000801270026E3
:1028A0000860C5F8008000BFE0B2C0096860012080
:1028B000640006F0ADF901202F6006F0A9F90120AF
:1028C000C5F8008006F0A4F9072E06F10106EBD347
:1028D000BDE8F0812DE9F04F83B040F6044AC4F220
:1028E000010A9846DAF80030029223F47042CAF8DE
:1028F0000020DAF8002048F2A815C4F2212542F49D
:1029000040520127CAF800206F6055F87C2C002A3D
:1029100000F0BD80044601200E462F6006F078F9D5
:102920004FF0000BC5F804B055F87C0C002840F0BF
:10293000AE800120CDF804804FF0010806F068F960
:10294000C5F800B0DAF80000002720F47040CAF89B
:102950000000DAF8000040F44050CAF80000C5F862
:1029600000B000BFC4F38010686001204FEA440942
:1029700006F04EF90120C5F8008006F049F9012063
:10298000C5F800B006F044F9072F07F101074C46DF
:10299000E8D3FFF7F1FEDAF80010002421F47041CB
:1029A000CAF80010DAF80010002841F440514FF046
:1029B0000108CAF800102C605DD00027F0B2C009F1
:1029C00068600120760006F023F90120C5F8008038
:1029D00006F01EF901202C6006F01AF9072F07F106
:1029E0000107EBD3FFF7C8FE0298DDF8049080B32F
:1029F000002601274FF0000B19F80B80DAF80000D1
:102A0000002420F47040CAF80000DAF8000040F416
:102A10004050CAF800002E605FFA88F0C009686074
:102A200001204FEA480806F0F3F801202F6006F075
:102A3000EFF801202E6006F0EBF8072C04F10104FA
:102A4000EAD3FFF799FE20B102980BF1010B834501
:102A5000D2D1DAF80000002720F47040CAF8000054
:102A6000DAF800004FF0010840F440500024CAF8A2
:102A700000002F6000E0012701206C6006F0C8F81C
:102A80000120C5F80080C5F8048006F0C1F838467A
:102A900003B0BDE8F08F00BF2DE9F04F81B040F6E4
:102AA0000447C4F201079A463B68154623F4704276
:102AB0003A603A6848F2A818C4F2212842F4405219
:102AC0004FF001093A60C8F8049058F87C2C002AAD
:102AD00000F0EA80044601200E46C8F8009006F097
:102AE00097F84FF0000BC8F804B058F87C0C002899
:102AF00040F0DA8001204FF0010906F089F8C8F8AB
:102B000000B03868610020F47040386038680024F4
:102B100040F4405038600F46C8F800B0009100BF44
:102B2000F8B2C009C8F8040001207F0006F070F870
:102B30000120C8F8009006F06BF80120C8F800B03A
:102B400006F066F8072C04F10104E9D3FFF714FE40
:102B500040F60449C4F20109D9F800104FF0000B07
:102B600021F47041C9F80010D9F80010002841F490
:102B700040514FF00107C9F80010C8F800B000F04C
:102B800084800024F0B2C009C8F804000120760057
:102B900006F03EF80120C8F8007006F039F8012070
:102BA000C8F800B006F034F8072C04F10104E9D3AA
:102BB000FFF7E2FDD9F800004E4620F47040C9F856
:102BC0000000D9F8000040F44050C9F800004FF070
:102BD0000109C8F8049058F87C0C78B10120C8F8B5
:102BE000009006F015F80024C8F8044058F87C0C52
:102BF00020B9012006F00CF8C8F8004030683246D1
:102C000020F4704030603068009940F4405041F04A
:102C10000106002700241060C8F80070F0B2C00957
:102C2000C8F804000120760005F0F2FF0120C8F882
:102C3000009005F0EDFF0120C8F8007005F0E8FFF6
:102C4000072C04F10104E9D3FFF796FD40F6044494
:102C5000C4F2010406E000BF002000F029F80AF8E1
:102C6000010B013DE8B20128F6D008B10120F4E7DC
:102C700020684FF0000920F470402060206840F484
:102C800040502060C8F8009001E04FF00109012099
:102C9000C8F804B005F0BCFF0120C8F80000C8F86F
:102CA0000400012005F0B4FF484601B0BDE8F08FF4
:102CB0002DE9F04740F60449C4F20109D9F80010A3
:102CC000804621F47040C9F80000D9F8000048F2AD
:102CD000A815C4F2212540F400404FF0000A012756
:102CE00000260024C9F800000220C5F800A005F065
:102CF0008FFF2F6055F87C0C002818BF012040EA98
:102D00004606022005F084FF072C04F10104EBD3F2
:102D100000242C60D9F80000B8FA88F120F4704043
:102D2000C9F80000D9F80000490940F44050C9F83A
:102D3000000001206960012705F06AFF01202F6073
:102D400005F066FFF0B22C60BDE8F0872DE9F04F8A
:102D500081B040F60449C4F20109D9F8002048F2D4
:102D6000A81622F47042C9F80020D9F80020C4F255
:102D7000212642F440524FF0010AC9F80020C6F85B
:102D800004A056F87C2C0D4680466AB10120C6F896
:102D900000A005F03DFF0024746056F87C0C18B9C3
:102DA000012005F035FF3460D9F800004FF0000B2A
:102DB00020F47040C9F80000D9F80000002440F465
:102DC00040504746C9F80000C6F800B0F8B2C00944
:102DD000706001207F0005F01BFF0120C6F800A0F5
:102DE00005F016FF0120C6F800B005F011FF072C12
:102DF00004F10104EAD3FFF7BFFCD9F800004FF05B
:102E0000000A20F47040C9F80000D9F8000001273A
:102E100040F440500024C9F80000C6F800A000BFEC
:102E2000E8B2C009706001206D0005F0F1FE0120DC
:102E3000376005F0EDFE0120C6F800A005F0E8FEC1
:102E4000072C04F10104EBD3FFF796FCD9F800003E
:102E50004FF0010A20F47040C9F80000D9F80000D2
:102E600040F44050C9F80000C6F804A056F87C0CA5
:102E700068B10120C6F800A005F0CAFE0024746005
:102E800056F87C0C18B9012005F0C2FE3460D9F860
:102E9000000008F1010520F47040C9F80000D9F8DD
:102EA0000000002740F440500024C9F800003760BB
:102EB000E8B2C009706001206D0005F0A9FE012094
:102EC000C6F800A005F0A4FE0120376005F0A0FEC2
:102ED000072C04F10104EBD3FFF74EFC0020002582
:102EE000FFF7E6FED9F80010044621F47041C9F856
:102EF0000010D9F8001041F44050C9F8000001203A
:102F000035607560012505F083FE01203560756030
:102F100005F07EFE204601B0BDE8F08F2DE9F04FB0
:102F200083B040F6044B0193C4F2010BDBF8003090
:102F3000029223F47042CBF80020DBF8002048F224
:102F4000A814C4F2212442F440520126CBF80020F8
:102F5000666054F87C2C0F46814662B101202660E1
:102F600005F056FE0025656054F87C0C18B9012068
:102F700005F04EFE2560DBF80000002520F47040CF
:102F8000CBF80000DBF800004FF0000840F44050A0
:102F9000CA46CBF8000025605FFA8AF0C00960607D
:102FA00001204FEA4A0A05F033FE0120266005F0B1
:102FB0002FFE0120256005F02BFEB8F1070F08F168
:102FC0000108E9D3FFF7D8FBDBF800004FF0000859
:102FD00020F47040CBF80000DBF80000012540F43D
:102FE00040500026CBF80000C4F80080F8B2C009B9
:102FF000606001207F0005F00BFE0120256005F0D8
:1030000007FE0120C4F8008005F002FE072E06F13D
:103010000106EBD3FFF7B0FBDBF800004FF001082F
:1030200020F47040CBF80000DBF8000040F4405082
:10303000CBF80000C4F8048054F87C0C68B101207F
:10304000C4F8008005F0E4FD0025656054F87C0CB0
:1030500018B9012005F0DCFD2560DBF8000009F15E
:10306000010720F47040CBF80000DBF800000025D9
:1030700040F440500026CBF800002560F8B2C009AB
:10308000606001207F0005F0C3FD0120C4F80080CE
:1030900005F0BEFD0120256005F0BAFD072E06F102
:1030A0000106EBD3FFF768FB02994FF0000A81B1EC
:1030B00001984F42451E0026B7F1FF3018BF01208E
:1030C000FFF7F6FD05F8010F013706F10106F3D30E
:1030D00000E00026DBF80000012520F47040CBF86A
:1030E0000000DBF8000040F44050CBF80000012065
:1030F000C4F800A0C4F804A005F08AFD01202560F2
:10310000656005F085FDF0B203B0BDE8F08F00BF4B
:103110002DE9F04F81B040F6044B0093C4F2010B4F
:10312000DBF80030914623F47042CBF80020DBF846
:10313000002048F2A814C4F2212442F440524FF077
:10314000010ACBF80020C4F804A054F87C2C0E46E9
:1031500007466AB10120C4F800A005F059FD00251A
:10316000656054F87C0C18B9012005F051FD25600C
:10317000DBF80000002520F47040CBF80000DBF8FD
:1031800000004FF0000840F44050CBF800002560EC
:10319000F8B2C009606001207F0005F039FD012010
:1031A000C4F800A005F034FD0120256005F030FDD5
:1031B000B8F1070F08F10108EAD3FFF7DDFADBF8F1
:1031C00000004FF0000820F47040CBF80000DBF85E
:1031D0000000012740F440500025CBF80000C4F85F
:1031E000008000BFF0B2C00960600120760005F0E9
:1031F0000FFD0120276005F00BFD0120C4F80080C1
:1032000005F006FD072D05F10105EBD3FFF7B4FA34
:10321000B9F1000F30D000264FF001084FF0000A3E
:103220000098002710F80A50DBF8000020F47040E6
:10323000CBF80000DBF8000040F44050CBF8000071
:10324000266000BFE8B2C009606001206D0005F093
:10325000DFFC0120C4F8008005F0DAFC01202660C4
:1032600005F0D6FC072F07F10107EBD3FFF784FA2F
:103270000AF1010ACA45D3D1DBF80000012520F488
:103280007040CBF80000DBF8000040F44050CBF871
:103290000000002020606060012005F0B9FC0120E2
:1032A0002560656005F0B4FC012001B0BDE8F08F39
:1032B00010B51446FFF74AFD01460120217010BDEC
:1032C00080B582B08DF807200DF107030122FFF7CA
:1032D0001FFF012002B080BD2DE9F04182B0DDF872
:1032E00020801C4615460E460746FFF72FFD4FF47B
:1032F000FF71C5F10702A9401319FF2525FA03F351
:10330000C4F1080508FA05F5EDB2194325FA02F2F1
:10331000084010438DF807000DF107033846314689
:103320000122FFF7F5FE012002B0BDE8F08100BFE9
:10333000F0B581B01C4615460E460746FFF706FD60
:103340000121A94041EA0002002C08BF20EA010245
:103350008DF803200DF10303384631460122FFF7B3
:10336000D7FE012001B0F0BD2DE9F04740F2D804AE
:10337000C2F2000416460F46DDE908A90546A11C65
:1033800020461222984605F02CFD002021180A8BB9
:10339000CB8DCA82B1F844208B85B1F85A30A1F8A0
:1033A0004220B1F8702002301228A1F85830A1F85C
:1033B0006E20EBD100216FF0010065822785E68742
:1033C000A4F85480A4F86AA0A4F880902218B2F956
:1033D0000220023012281144F8D146F26760C6F28A
:1033E000666081FB0012910801EBD271A18200217D
:1033F000142200BFA318B3F902300232282A19445C
:10340000F8D181FB0012910801EBD2716185002196
:103410002A2200BFA318B3F9023002323E2A19440F
:10342000F8D181FB0012910801EBD271A4F8401091
:1034300000214022A318B3F902300232542A194461
:10344000F8D181FB0012910801EBD271A4F856105B
:1034500000215622A318B3F9023002326A2A194415
:10346000F8D181FB0012910801EBD271A4F86C1025
:1034700000216C22A318B3F902300232802A1944C9
:10348000F8D181FB0001880800EBD170A4F882001C
:10349000BDE8F08780B582B08446D0206B2102223F
:1034A0000323CDF800C0FFF717FF02B080BD00BFB7
:1034B00080B582B08446D0201B2104220223CDF89F
:1034C00000C0FFF709FF02B080BD00BF80B582B029
:1034D0008446D0201C2104220223CDF800C0FFF72F
:1034E000FBFE02B080BD00BF0346D0206B21062248
:1034F000FFF71EBF10B540F2CA14C2F20004D0207C
:10350000752101222346FFF709FD207810BD00BF79
:1035100010B540F2CA14C2F20004D0207521012275
:103520002346FFF7FBFC20786838B0FA80F04009AA
:1035300010BD00BF0346D0206A210522FFF7F8BE68
:103540000346D02037210122FFF7F2BE10B582B02A
:1035500002200090D0206B21022203230324FFF7D6
:10356000BBFED0201B21042202230094FFF7B4FEEF
:103570000024D0201C21042202230094FFF7ACFE7B
:10358000D0206B2106220023FFF7D2FED0206A2133
:1035900005220023FFF7CCFED02037210122002393
:1035A00002B0BDE81040FFF7C3BE00BF70B588B0E1
:1035B00000208DF801000DF1010368207521012222
:1035C000FFF76AFA4BF21600C0F6000006F0D2FDD3
:1035D0009DF80100682804D100F096FA88B108B07F
:1035E00070BD4EF60C50CEF200000168042201F4CA
:1035F000E061C0F2FA5211430160BFF34F8F00BF88
:10360000FEE7782000F050FD28B94BF21600C0F616
:10361000000006F0AFFD782000F084FC10B941A056
:1036200006F0A8FDC82000F00FFC10B946A006F077
:10363000A1FD02F0E9F910B94DA006F09BFDAC2008
:1036400002F0EEF928B94AF6F170C0F6000006F073
:1036500091FD40F2731002F0EFFC28B94AF6877032
:10366000C0F6000006F086FDC82002F031FB28B944
:103670004AF6AB70C0F6000006F07CFD05A802A972
:1036800001F072FA07283ED101A801F0D9F8DDE96E
:103690000506079C05F05AFE019D0146284605F0E7
:1036A00025FC05F06EFE0590304605F04FFE014604
:1036B000284605F01BFC05F064FE0690204605F048
:1036C00045FE0146284605F011FC05F05AFE07901C
:1036D00005A802F02DFA0DF1020001F0D3F802ABBB
:1036E000BDF802000ECB4143029102FB00F15843AA
:1036F000049002A8039102F08BFA4BF23600C0F658
:10370000000006F037FD012001F08AFC00287FF45C
:1037100066AF4AF6CE70C0F6000006F02BFD08B08A
:1037200070BD00BF6D70755F636F6E66696775729F
:10373000655F6669666F20636F6D706C6574652088
:103740002E2E2E2E2E2E0D006D70755F7365745FFC
:1037500073616D706C655F7261746520636F6D700D
:103760006C657465202E2E2E2E2E2E0D000000006E
:10377000646D705F6C6F61645F6D6F74696F6E5FB5
:103780006472697665725F6669726D7761726520D1
:10379000636F6D706C657465202E2E2E2E2E2E0D8F
:1037A000000000002DE9F04F89B00DF11F0040F23C
:1037B0000424019040F2F01040F2C411C2F200045F
:1037C000C2F20000C2F2000103AA08AB009402F0AA
:1037D00017FE2088C00540F1138103AFC1CF069CBE
:1037E00005F0B4FD4FF0425105F080FB054640F274
:1037F0005800C2F200000560304605F0A7FD4FF00A
:10380000425105F073FB40F2F819C2F20009064676
:10381000C9F80000384605F099FD4FF0425105F017
:1038200065FB074640F2FC10C2F2000007608346C9
:10383000204605F08BFD4FF0425105F057FB40F25A
:10384000002AC2F2000A0446CAF8000030464FF0CF
:10385000404105F04BFB06462846294605F0EEFAA6
:10386000394605F043FB05463046214605F03EFB50
:10387000294605F0E3FA05F0BCFD06F007F94AF227
:103880006668C4F24C084FF06632434605F045FCCA
:1038900005F0C2FD40F29011DBF80040C2F20001D9
:1038A00008602046214605F0C9FA40F25801C2F2EC
:1038B00000010968DAF800608346084605F0BEFAA0
:1038C000D9F80050294605F011FB07465846314605
:1038D00005F00CFB394605F0B1FA05F08AFD824689
:1038E0000E4628464FF0404105F000FB07462046B3
:1038F000594605F0FBFA04463846294605F0F6FA23
:10390000214605F0EDFA4FF07E5105F097FA05F0EB
:1039100070FD02460B465046314606F0FFFA4FF066
:103920006632434605F0F9FB05F076FD40F2FC12E5
:10393000C2F20002176840F25802C2F20002146894
:1039400040F20022C2F2000240F2A811D2F8008038
:10395000C2F20001D9F8005008602046414605F047
:10396000C5FA06462846394605F0C0FA314605F044
:1039700065FA014605F062FA05F03BFD82468B468A
:103980002846294605F0B2FA05462046214605F0AC
:10399000ADFA294605F052FA04463846394605F094
:1039A000A5FA0146204605F09BFA044640464146EA
:1039B00005F09CFA0146204605F092FA05F019FD43
:1039C00002460B465046594606F0A8FA4AF266638C
:1039D0004FF06632C4F24C0305F09FFB05F01CFD6E
:1039E00040F2C011C2F20001086040F2F010C2F2D1
:1039F0000000B0F9040040F2B001C2F2000108601A
:103A000009B0BDE8F08F00BFB0B5D0204121FFF76D
:103A10009DF90446D0204221FFF798F940EA04249A
:103A2000204605F093FC0021CCF28071054605F09C
:103A300005FA0021C4F2AA31B4F5004F98BF284618
:103A400005F086FA05F0D5FC47F2A40244F2D7331C
:103A5000C0F63D22C4F2420305F0B8FA0023C4F2D6
:103A60002403002205F059FB05F0D6FC05F089FC83
:103A7000B0BD000070B582B040F26405C2F200052E
:103A800068680179E9B100260DF1070406E000BF7E
:103A9000686801360179F2B28A4212D22A68F1B21C
:103AA000D37A9942F4D0527D9142F1D0007801222C
:103AB0002346FEF7F1FF0028EAD04FF0FF3002B0B6
:103AC00070BD002002B070BD10B540F2640EC2F2AD
:103AD000000EDEF80030DA7A824211D00446587DBA
:103AE000A0420DD0DEF804008C460179A14207D92E
:103AF0000078214601226346BDE81040FEF7CCBFA6
:103B00004FF0FF3010BD00BF10B582B040F264042A
:103B10008020C2F200048DF80100D4E900100DF1FC
:103B200001030078897C0122FEF7D4FE10B14FF02A
:103B3000FF341EE0642005F081F800208DF80100BC
:103B4000D4E900100DF101030078897C0122FEF711
:103B5000C1FE10B14FF0FF340BE0D4E900100DF1BD
:103B600001030078897D0622FEF796FF20B14FF011
:103B7000FF34204602B010BD9DF806209DF80200DB
:103B80009DF80410042303EA820261F3410200F06D
:103B90000100111805D001292AD002290ED10020D8
:103BA00027E0D4E900100DF101030078C978012263
:103BB000FEF772FF40B14FF0FF34DAE736A005F0B0
:103BC000E7FD4FF0FF34D4E79DF8010000F00F004F
:103BD00004280AD00028E2D14BF25700C0F60000BA
:103BE00006F0C8FA4FF0FF34C3E735A006F0C2FA7A
:103BF0000120E0744FF6FF70E081FF202074A07474
:103C00004FF0FF30A0600020C4E90500E06120848F
:103C1000C4F8230084F8270018208DF80700D4E9A1
:103C20000010012200788979227384F822200DF196
:103C300007030122FEF74EFE10B14FF0FF3498E764
:103C40009DF80700C0082072022000F089F810B12A
:103C50004FF0FF348DE72A2000F0BEF810B14FF08E
:103C6000FF3486E7322000F0EFF810B14FF0FF3458
:103C70007FE7002000F056F910B14FF0FF3478E7ED
:103C8000002000F09BF910B14FF0FF3471E70020E5
:103C9000002400F009FA6CE7556E737570706F724E
:103CA00074656420736F6674776172652070726FDB
:103CB00064756374207265762025642E0A00000006
:103CC00048616C662073656E73697469766974798E
:103CD000207061727420666F756E642E0D00000096
:103CE00010B582B040F26404C2F20004A17A61B35C
:103CF0000146B0F57A7F4FF0FF3006DAFA290CD092
:103D0000B1F5FA7F2AD108200AE0B1F57A7F06D012
:103D1000B1F5FA6F22D1182002E0002000E0102057
:103D20008DF80700207A9DF80710B0EBD10F02D173
:103D3000002002B010BDD4E900100DF10703007897
:103D400089790122FEF7C6FD18B14FF0FF3002B0AD
:103D500010BD9DF80700C0082072002002B010BD01
:103D600010B582B040F26404C2F20004A17A41B3FB
:103D700002384FEA700107294FF0FF302AD8DFE8F8
:103D800001F0040629082929290A002004E0082056
:103D900002E0102000E018208DF80700607A9DF8FE
:103DA0000710B0EBD10F02D1002002B010BDD4E952
:103DB00000100DF107030078C9790122FEF78AFD92
:103DC00018B14FF0FF3002B010BD9DF80700C008D9
:103DD0006072002002B010BD10B582B040F26404E1
:103DE000C2F20004A17A21B3BC2801D301200FE064
:103DF000622801D302200BE02A2801D3032007E028
:103E0000142801D3042003E00A2834BF062005202B
:103E10008DF80700E07A9DF80710884210D0D4E9A9
:103E200000100DF10703007889780122FEF752FD9A
:103E300018B14FF0FF3002B010BD9DF80700E072DE
:103E4000002002B010BD00BF70B582B040F2640522
:103E5000C2F20005A97A044600294FF0FF305FD076
:103E600095F8241000295BD1287D60B1601E80B2D6
:103E7000272805D8E0B200F093F9002002B070BD09
:103E8000002000F08DF94FF47A76B4F57A7F28BFE0
:103E90003446042C98BF0424B6FBF4F00DF106035D
:103EA00001388DF80600D5E9001001220078497824
:103EB000FEF710FD18B14FF0FF3002B070BD9DF855
:103EC0000600AA7A411CB6FBF1F1E9813AB3012858
:103ED00001D801200FE0042801D802200BE00A28B5
:103EE00001D8032007E0182801D8042003E0312876
:103EF0008CBF062005208DF80700E87A9DF8071092
:103F000088420CD0D5E900100DF1070300788978BC
:103F10000122FEF7DFFC10B99DF80700E8720020CF
:103F200002B070BDF0B581B040F26405C2F2000588
:103F300095F8241019B10024204601B0F0BDA97AEB
:103F4000F9B100F0FE0739402E7CCC1B287D18BF4C
:103F50004FF0FF34002F297408BF002814D0687C6C
:103F600010BB01208DF80200D5E900100DF102030D
:103F70000078C97B0122FEF7ADFCA8B99DF80200CC
:103F800011E04FF0FF34D7E700208DF80300D5E9AA
:103F900000100DF103030078C97B0122FEF79AFCA3
:103FA00010B99DF803006874002FC5D000F02EFBF7
:103FB00000281CBF2E744FF0FF34BDE7B0B582B0AF
:103FC00040F26405C2F20005A97C814202D10020C2
:103FD00002B0B0BD0446D5E900100DF1070300782A
:103FE00009790122FEF758FD84B3002844D19DF8D9
:103FF00007000DF1070300F0DF008DF80700D5E999
:104000000010012200780979FEF764FCA0BB0320B0
:1040100004F014FE95F8221095F823206FF07D002F
:10402000002908BF02208DF807001AB140F03000C7
:104030008DF80700D5E900100DF107030078097D20
:104040000122FEF747FCB8B9AC74C0E7A0B99DF8EF
:104050000700A97A00F0DF0001F0010140EA4110F9
:104060008DF80700D5E900100DF1070300780979F4
:104070000122FEF72FFC18B14FF0FF3002B0B0BDA7
:10408000032004F0DBFD95F8220095F8231002468A
:1040900000281CBF01226FF07F00D20100298DF89B
:1040A0000720C3D1C6E700BFB0B582B0044610F008
:1040B000700F01D0012003E0002C0CBF4020002035
:1040C00040F26405C2F200058DF80600D5E9001043
:1040D0000DF106030078897C0122FEF7FBFB20B17D
:1040E0000020A8724FF0FF3456E09DF80600A106AC
:1040F00000F0BF0028734FF0040020EA141058BFEE
:104100000230E1068DF8060005D49DF8060040F067
:1041100001008DF80600200705D49DF8060040F048
:1041200038008DF80600D5E900100DF1060300787F
:10413000C97C0122FEF7CEFB20B10020A8724FF00F
:10414000FF3429E014F0F70F20D095F82300E8B1F0
:10415000A87C95F82210002818BF012040008DF897
:10416000070029B19DF8070040F080008DF8070096
:10417000D5E900100DF107030078097D0122FEF753
:10418000A9FB002804BF002085F82300AC7200249E
:1041900032202C7504F052FD204602B0B0BD00BFA5
:1041A00070B582B0282802D94FF0FF34E5E040F224
:1041B00064050446C2F20005002842D095F82300A9
:1041C00001281DD0A87C95F822103222002808BFB3
:1041D00030228DF8032029B19DF8030040F08000C3
:1041E0008DF80300D5E900100DF103030078097D77
:1041F00001220126FEF76EFB002808BF85F8236028
:104200002020012C8DF800004CD1A87A0021002834
:104210008DF8011000F09680E87A062106288DF8C6
:10422000041000F08F80D5E9001001AB0078897888
:104230000122FEF74FFB002840F084809DF8040027
:104240007FE095F82300E8B1A87C95F822100028BB
:1042500018BF012040008DF8020029B19DF802002E
:1042600040F080008DF80200D5E900100DF1020346
:104270000078097D0122FEF72DFB002804BF0020F5
:1042800085F823004FF4E060ADF80000D5E9001098
:104290006B460078897C0222FEF71CFBB8B34FF016
:1042A000FF346AE0052C18D8A87A012100288DF87F
:1042B000011047D0E87A062106288DF8051041D074
:1042C000D5E900100DF10503007889780122FEF789
:1042D00001FBB8BB9DF8050033E0142C1AD8A87A6E
:1042E00002218DF8011068B3E87A052105288DF8C0
:1042F000061027D0D5E900100DF106030078897863
:104300000122FEF7E7FAE8B99DF8060019E000245B
:104310002C7532E0A87A03218DF8011090B1E87A6B
:10432000042104288DF807100CD0D5E900100DF1F8
:104330000703007889780122FEF7CCFA10B99DF8BE
:104340000700E8729DF801006B46800107308DF888
:104350000100D5E9001002220078897CFEF7BAFA44
:1043600010B14FF0FF3408E00820A87201200024AB
:10437000287500202C73FFF7D5FD204602B070BDD4
:10438000B0B582B040F26405C2F2000595F8231082
:10439000814225D0A97C0446002818BF302000297E
:1043A0008DF807001CBF40F002008DF8070095F85B
:1043B000220028B19DF8070040F080008DF807002A
:1043C000D5E900100DF107030078097D0122FEF701
:1043D00081FA18B14FF0FF3002B0B0BD85F823402C
:1043E000002002B0B0BD00BF10B582B040F2640141
:1043F000C2F200018A7A12F0700F0AD004464868AF
:1044000009680078097B0DF102030622FEF744FBE0
:1044100018B14FF0FF3002B010BDBDF80200BDF87A
:10442000041000BA000C208008BABDF80610000C79
:10443000608008BA000CA080002002B010BD00BF50
:10444000704700BF10B582B040F26401C2F20001B3
:104450008A7A12070AD50446486809680078497BB9
:104460000DF102030622FEF717FB18B14FF0FF30E3
:1044700002B010BDBDF80200BDF8041000BA000C77
:10448000208008BABDF80610000C608008BA000C45
:10449000A080002002B010BD70B582B040F264056B
:1044A000C2F20005A97A51B10446D5E900100DF118
:1044B00006030078897B0222FEF7EEFA18B14FF06E
:1044C000FF3002B070BDBDF80600C0BA04F03EFF78
:1044D0006E680546B6F90810084604F037FF014635
:1044E000284604F0FDFCF1880546084604F037FF35
:1044F0000146284604F02CFD0021C4F20C2104F0F2
:104500009DFC4FF08F4104F0F1FC04F03AFF206075
:10451000002002B070BD00BF2DE9F04782B030B37B
:104520000446006820B9606810B9A068002868D007
:1045300040F26405C2F2000568680DF102030078DC
:1045400003210322FEF7A8FA88B968689DF8028063
:1045500000789DF803A09DF80460D4E90097A46852
:104560000DF1020306210622FEF796FA20B14FF064
:10457000FF3002B0BDE8F087082101EB16120423DA
:10458000600063F31F1290FBF2F07A0001EB1A1740
:1045900063F31F1701EB181192FBF7F24FEA49077B
:1045A00063F31F11BDF8023097FBF1F1BDF8047001
:1045B000BDF806601BBA3FBA36BA01EB134102EBF5
:1045C000174200EB16400B0A8DF80310110A8DF804
:1045D0000410010A8DF8061069688DF802308DF814
:1045E00005208DF8070008780DF102030621062248
:1045F000FEF770F9002818BF4FF0FF3002B0BDE899
:10460000F087002002B0BDE8F08700BF10B582B08F
:1046100040F26404C2F20004A07A00B300208DF8D6
:104620000700D4E900100DF107030078C97B0122CF
:10463000FEF750F998B9D4E900100DF1070300789E
:1046400049790122FEF746F948B9D4E900100DF185
:104650000703007809790122FEF73CF918B14FF001
:10466000FF3002B010BD94F82400002842D00C2086
:104670008DF80700D4E900100DF1070300780979DF
:104680000122FEF727F90028E9D1A07A0DF10703EE
:10469000C0076FF01F0008BF6FF03F008DF80700E4
:1046A000D4E90010012200780979FEF713F90028F7
:1046B000D5D1607C0DF10703002818BF0120400010
:1046C0008DF80700D4E9001001220078C97BFEF7BD
:1046D00001F90028C3D100208DF80700D4E90010AB
:1046E0000DF10703007849790122FEF7F3F800285D
:1046F000B5D142E004208DF80700D4E900100DF197
:104700000703007809790122FEF7E4F80028A6D112
:10471000A07AA17CC0074FF0600008BF40200029AC
:1047200018BF40208DF80700D4E900100DF10703F1
:10473000007809790122FEF7CDF800288FD1607C3E
:104740000DF10703002818BF01208DF80700D4E9F8
:10475000001001220078C97BFEF7BCF800287FF426
:104760007EAFD4E9001004F11003007849790122EA
:10477000FEF7B0F800287FF472AF002002B010BD41
:1047800040F26401C2F2000191F908200146032AB7
:1047900006D84AF22C30C0F6000030F8122000E0B3
:1047A000002200200A80704740F26401C2F200013A
:1047B0004A7A032A84BF4FF0FF30704740F2024329
:1047C000D200C1F2080323FA02F20270C97C002968
:1047D00004BF002070470178490001700020704735
:1047E00040F26401C2F20001C97A4A1ED1B2052921
:1047F000014607D850B24AF2FC22C0F6000232F855
:10480000102000E0002200200A80704740F264017E
:10481000C2F2000191F82420002A1CBF4FF0FF30A3
:104820007047C98901800020704700BF01460022FF
:104830004FF0FF300A8070474FF0FF30704700BFE5
:1048400040F26401C2F200010A7A032A84BF4FF0E9
:10485000FF3070470021C4F20331DFE802F00F029D
:10486000060B0021C4F2832108E043F23331C4F285
:10487000032103E043F23331C4F2831101600020CD
:10488000704700BF40F26401C2F2000191F90920B3
:10489000032A84BF4FF0FF30704707A3C97C33F869
:1048A00012200029028004BF0020704701884908B7
:1048B00001800020704700BF00409C1F00100008CE
:1048C000014640F26400C2F20000027C00200A703F
:1048D000704700BF40F26401C2F200018A7A0146CB
:1048E0000020002A18BF01220A70704710B582B05C
:1048F00040F26401C2F200018A7A52B1044648686B
:1049000009680078097C0DF106030222FEF7C4F85D
:1049100018B14FF0FF3002B010BDBDF8060000BA6C
:10492000000C2080002002B010BD00BF2DE9F04F28
:1049300083B040F26406C2F2000696F8242022B149
:104940004FF0FF3003B0BDE8F08F824600201870B2
:10495000B07A1C460028F3D0307C0028F0D00F46F7
:104960000221C0F3801201EB4205820658BF01EA22
:104970005015C10648BF02350007D6E900106B4646
:104980000078897A4FF0020248BF0635FEF784F8B6
:104990000028D5D1BDF800005FFA85F901BAB9EB5E
:1049A000114F03D9002003B0BDE8F08F716890FA71
:1049B00090FB4A88BBEB520F0CD932680878517CC7
:1049C0006B460122FEF768F80028B9D19DF8000077
:1049D000C00618D4D6E90010E8460078C97A4A46DD
:1049E0004346FEF759F80028AAD1BBFBF9F00C9911
:1049F000013808700020290620701FD0307C000785
:104A000008D400201AE0FFF701FE6FF0010003B0A8
:104A1000BDE8F08FBDF80000BDF8021000BA000C30
:104A2000388008BABDF80410000C788008BA000C71
:104A3000B880207840F0080020700620484511D04A
:104A4000317C49060ED540F0010218F8001018F824
:104A50000220023042EA0121AAF80010217841F038
:104A60004001217048450DD0317C89060AD538F8BF
:104A70000010023009BA090CAAF80210217841F09E
:104A80002001217048458DD0317CC9067FF58AAF61
:104A900038F8000000BA000CAAF80400207840F0B2
:104AA000100020707EE700BF2DE9F04182B040F297
:104AB0006407C2F200070E4697F8241005464FF02F
:104AC000FF30E1B3B97AD1B3D7E9001014460078CA
:104AD000897A0DF106030222FDF7DEFF28BBBDF83F
:104AE000060001BAB5EB114F02D9002020701CE07E
:104AF000796890FA90F84A88B8EB520F0CD93A6866
:104B00000878517C0DF106030122FDF7C5FF60B95D
:104B10009DF80600C00615D4D7E90010EAB2007867
:104B2000C97A3346FDF7B8FF20B14FF0FF3002B02D
:104B3000BDE8F081B8FBF5F001382070002002B02C
:104B4000BDE8F081FFF762FD6FF0010002B0BDE843
:104B5000F08100BF40F264020146C2F20002002070
:104B600082F82210704700BF2DE9F04F97B040F255
:104B70006406C2F2000696F824800D46B8F1000FD4
:104B8000074602D0002000F04BFA307A032808D8FC
:104B9000FA220B92DFE800F00D02070A4FF4FA70D8
:104BA00006E0002004E04FF47A7001E04FF4FA6070
:104BB0000B90707A03280CD840F20241C000C1F279
:104BC0000801F27C21FA00F0002A18BF012290406F
:104BD0000790F07A06281BD800F07F00411EB1FA3A
:104BE00081F149090A910621C14001F001010991B1
:104BF0000E21C14001F0010108911E21C14001F0C8
:104C0000010106913E2121FA00F000F0010008E0C8
:104C100000200A90002009900020089000200690B3
:104C20000020B6F80EB096F80AA096F8109000246E
:104C3000059000BF38462946002200F061FA18B1FD
:104C40000134012CF6D00224022C0DD0002400BF28
:104C50000FA80CA9012200F053FA18B10134012C5D
:104C6000F6D00224022C01D100247EE0706816AB3D
:104C700000780D210422CDE901BACDE90398FDF7B2
:104C80000BFF002800F0DB8000264FF0000812AC7C
:104C9000CBF680764FF0000B0CE000BF012000FA4D
:104CA00008F04BEA000B08F10108B8F1030F04F11A
:104CB000040436D00CA955F8280051F82810401AE1
:104CC00048BF404204F042FB4FF05E5104F00EF941
:104CD000D4F8009082464846002104F029FB68B9C8
:104CE0005046494604F034F9314604F0A7F845F639
:104CF000294120F00040C3F60F610DE049F69A11FA
:104D00005046C3F6996104F0F7FA0028C6D143F281
:104D100033315046C3F6737104F0E0FA0028C2D173
:104D2000BCE740F26400C2F20000406812AD0078B7
:104D30000D2103222B46FDF7AFFE002800F0D580A1
:104D40004FF007085FFA88F0B0FA80F044095FEA94
:104D50000B6008BF0234DDF8108040F26406DDF815
:104D60000C90DDE901BAC2F200064FF6FF700B9914
:104D7000F081FF2030744FF0FF30B0600120B1F5BA
:104D80007A7F307306DAFA290AD0B1F5FA7F19D1A1
:104D9000082008E006D0B1F5FA6F13D1182002E020
:104DA000002000E010208DF84800D6E9001012AB7A
:104DB000007889790122FDF78DFD18B99DF848002A
:104DC000C0083072B07A40B30798C0B202384FEAD8
:104DD0007000072821D8DFE800F004062008202012
:104DE000200A002004E0082002E0102000E0182043
:104DF0008DF84800707A9DF84810B0EBD10F0CD0B8
:104E0000D6E9001012AB0078C9790122FDF762FDE6
:104E100018B99DF84800C0087072B07A002800F0F8
:104E2000EC800A9808B10120D4E0099808B102206A
:104E3000D0E00898002800F0C4800320CAE09DF864
:104E400058009DF85B301C249DF8591004EAD000EE
:104E5000C3F3011210449DF85AC08DF8550004EABE
:104E6000D100C3F3810108448DF8560004EADC0048
:104E700003F0030145F61D2408440DF1550912AE57
:104E8000C3F684744FF000088DF8570009E000BFA6
:104E90000020CBF8000008F10108B8F1030F3FF43F
:104EA000F3AE19F8080006EB880B0028F0D0A0F14B
:104EB000010A5FEA0A600FD041F27B40C3F6AE60A0
:104EC000214604F013F8AAF1010A5FEA0A61F7D15A
:104ED0004FF0000A04E000BF41F27B40C3F6AE6031
:104EE000CBF8000009F808A0D5E79DF848009DF828
:104EF00049109DF84A2000F01F008DF8480001F08D
:104F00001F004EF2543A8DF8490002F01F000026AF
:104F1000C3F6857A4FF000088DF84A0008E000BF1C
:104F20000120B04048EA00080136032E3FF40AAFE2
:104F30000FA957F8260051F82610401A48BF4042E2
:104F400004F004FA4FF05E5103F0D0FFA95D04466F
:104F500031B3A1F101090021C4F2C8115FEA09606F
:104F60000CD000BF0846514603F0C0FFA9F101096B
:104F70005FEA09610146F5D14FF00009204605F8C6
:104F8000069003F0E5FF0021CBF6807103F056FF99
:104F900045F6294120F00040C3F60F610CE000BF48
:104FA00000212046C4F2201104F0A6F90028B7D150
:104FB00000212046C4F2D22104F090F90028B3D198
:104FC000AEE7069808B1042004E0059800280CBF5D
:104FD000062005208DF84800F07A9DF84810884298
:104FE0000BD0D6E9001012AB007889780122FDF7CA
:104FF00071FC10B99DF84800F0725846FEF724FF86
:105000005046FFF751F84846FEF78CFFB8F1000F05
:1050100002D0012000F004F8204617B0BDE8F08F60
:10502000B0B582B040F26404C2F2000494F82410D7
:1050300081425DD0D0B394F8250000285BD009B937
:10504000A07A78B100208DF80500D4E900100DF1A8
:1050500005030078C97B0122FDF73CFC10B99DF8DF
:105060000500607400200025FEF7A8FFE08CFEF725
:10507000EBFE60688DF80450007801AB232101221B
:105080000125FDF727FC02208DF80600D4E9001069
:105090000DF106030078C97B012284F82450FDF746
:1050A00019FC18BB9DF8060060741FE009B9A07ACE
:1050B00078B100208DF80700D4E900100DF1070346
:1050C0000078C97B0122FDF705FC10B99DF80700A7
:1050D0006074207C61688DF80400087801AB23219E
:1050E0000122FDF7F7FB002084F82400FFF78EFA79
:1050F000002002B0B0BD4FF0FF3002B0B0BD00BF25
:105100002DE9F04784B040F2640705460120C2F261
:1051100000070C46ADF80400D7E9001016460078E9
:10512000897C01AB0222FDF7D5FB10B14FF0FF37B0
:105130008DE1C82003F082FD00208DF80400D7E93E
:10514000001001AB0078C97B0122FDF7C3FB10B151
:105150004FF0FF377BE1D7E9001001AB00784979C8
:105160000122FDF7B7FB10B14FF0FF376FE1D7E930
:10517000001001AB0078897C0122FDF7ABFB10B178
:105180004FF0FF3763E1D7E9001001AB0078C97D2C
:105190000122FDF79FFB10B14FF0FF3757E1D7E930
:1051A000001001AB007809790122FDF793FB10B1E3
:1051B0004FF0FF374BE10C208DF80400D7E90010C9
:1051C00001AB007809790122FDF784FB10B14FF0A3
:1051D000FF373CE10F2003F031FDB86A3968407AAF
:1051E0007A688DF804001078897801AB0122FDF708
:1051F00071FB10B14FF0FF3729E1B86A3968007AC6
:105200007A688DF804001078497801AB0122FDF727
:1052100061FB10B14FF0FF3719E1B86AD7E900120E
:10522000807A002E18BF40F0E0008DF8040010785E
:10523000897901AB0122FDF74DFB10B14FF0FF372B
:1052400005E126B1B86AC07A60F01F0000E01820BE
:105250008DF80400D7E9001001AB0078C97901226C
:10526000FDF738FB10B14FF0FF37F0E016B1C82062
:1052700003F0E4FC40208DF80400D7E9001001ABF6
:10528000007809790122FDF725FB10B14FF0FF37B7
:10529000DDE078208DF80400D7E9001001AB00783C
:1052A00049790122FDF716FB10B14FF0FF37CEE030
:1052B000322003F0C3FC00208DF80400D7E9001071
:1052C00001AB007849790122FDF704FB10B14FF0E2
:1052D000FF37BCE0D7E9001001AB0078897A0222E1
:1052E000FDF7DAFB10B14FF0FF37B0E0BDF8040076
:1052F0004AF6AB2100BA000C4843C0F3C74800216E
:10530000B8F1000FC5E90011A960C4E90011A1605E
:1053100042D0C00C00260DF104095FFA80FAD7E9EB
:1053200000100C220078C97A4B46FDF7B5FB002827
:1053300040F08B80BDF80400BDF80610BDF80820D1
:1053400090FA80FCD4E9003009BA92FA82FEA26891
:1053500003EB2C4300EB214002EB2E41C4E900306B
:10536000BDF80A00A160BDF80C1090FA80FCBDF8F1
:105370000E20D5E9003009BA92FA82FEAA6803EB42
:105380002C4300EB21400136C5E90030F0B202EBBE
:105390002E415045A960C2D395E841028322C1172E
:1053A000090441EA104100040023002703F0E8FC4F
:1053B0004246002303F0E4FC2860F017000440EAB2
:1053C000164130048322002303F0DAFC4246002316
:1053D00003F0D6FC68604FEAE970000440EA194126
:1053E0004FEA09408322002303F0CAFC424600230F
:1053F00003F0C6FCA860D4E90006A568C1174901FE
:1054000041EAD06140014246002303F0B9FC20602C
:10541000F017400140EAD66170014246002303F0D4
:10542000AFFC6060E817400140EAD5616801424680
:10543000002303F0A5FC4FF480310028C4BF0021F5
:10544000CFF6FF710844A06001E04FF0FF37384607
:1054500004B0BDE8F08700BF70B582B00D460146CC
:105460004FF0FF3042B340F26406C2F20006144629
:10547000B27A0AB370684ABAC9B2438929449942D8
:10548000ADF8062008D831680078097E0DF10603D2
:105490000222FDF71FFA18B14FF0FF3002B070BDC5
:1054A000D6E90010EAB20078497D2346FDF712FAEA
:1054B000002818BF4FF0FF3002B070BD70B582B049
:1054C0000D4601464FF0FF3042B340F26406C2F28F
:1054D00000061446B27A0AB370684ABAC9B2438960
:1054E00029449942ADF8062008D831680078097E31
:1054F0000DF106030222FDF7EDF918B14FF0FF3070
:1055000002B070BDD6E90010EAB20078497D2346AA
:10551000FDF7C2FA002818BF4FF0FF3002B070BD8F
:105520002DE9F04F87B0074600294FF0FF3000F01B
:10553000A78040F26404C2F200040E4694F82510DD
:10554000002940F09D809246002F019300F07F805B
:105550004FF000090DF10A0B1FFA89F0A7EB0008C4
:10556000B8F1100FA8BF4FF0100835184FF0FF30FA
:1055700006B3A17AF1B160685FFA89F11FFA88F287
:1055800043891144994299FA89F14FEA1141ADF8E2
:105590001A1003D94FF0FF3070B166E0216800782F
:1055A000097E02220DF11A03FDF794F900283ED07E
:1055B0004FF0FF30002858D1A07AB8B160685FFA88
:1055C00089F11FFA88F243891144994299FA89F1C5
:1055D0004FEA1141ADF81A1008D821680078097E09
:1055E00002220DF11A03FDF775F980B14FF0FF307B
:1055F000D8BB1FFA88F22846594603F012FC00284F
:1056000041D1C1441FFA89F0B842A5D31FE0D4E9C3
:1056100000105FFA88F20078497D5B46FDF73CFA9E
:10562000002818BF4FF0FF300028E2D01DE0D4E979
:1056300000105FFA88F20078497D2B46FDF74AF9A1
:10564000002818BF4FF0FF300028B5D00DE09AFABF
:105650009AF0ADF81A00D4E900100DF11A030078A1
:10566000897E0222FDF736F920B14FF0FF3007B0F6
:10567000BDE8F08F012084F825000198E084002027
:1056800007B0BDE8F08F6FF0010007B0BDE8F08F04
:10569000014640F26400C2F2000090F8242000208D
:1056A0000A7070474FF0FF30704700BF4FF0FF3077
:1056B000704700BF2DE9F04182B03AB114460D4663
:1056C000B0F5FF5F15D94FF0FF0817E040F2640115
:1056D0000020C2F2000100BF0A18927D002A40F0AB
:1056E000B08001300C28F7D14FF0FF3002B0BDE898
:1056F000F0815FEA501808BF4FF00108002D08BF85
:105700000125282C06D94FF0FF300027002F00F08C
:10571000398196E040F26406C2F20006707D0028EE
:105720003FD196F8240020B10020FFF779FC01203A
:1057300000E0002096F9081086F82000032906D81A
:105740004AF22C30C0F6000030F8110000E00020D2
:10575000717AF08203290CD8C80040F20241F27C31
:10576000C1F2080121FA00F0307612B1307E40001B
:105770003076F07A0138C1B2052907D84AF2FC2107
:1057800040B2C0F6000131F8100000E0002096F8A9
:105790002410708309B9F089B083B07A317CB07776
:1057A000F17796F8240008B9B07A70B100208DF82E
:1057B0000400D6E9001001AB0078C97B0122FDF797
:1057C00089F810B99DF80400707400200027FEF7D6
:1057D000E7FCD6E900108DF80170007889780DF1AA
:1057E00001030122FDF776F828B14FF0FF30002FBA
:1057F00000F0C88025E040208DF80100D6E90010B7
:105800000DF101030078C97B01220127FDF762F841
:1058100018B1002F00F0B68013E0D6E900108DF823
:1058200001808DF802500078097A0DF101030222FF
:10583000FDF750F8002800F0A8800127002F00F0A5
:10584000A18040F26404C2F200044FF6FF70E081D0
:10585000FF2020744FF0FF30A060A07F0121217352
:10586000FEF722FCA07A48B3E08AB0F57A7F06DA28
:10587000FA280AD0B0F5FA7F20D1082008E006D037
:10588000B0F5FA6F1AD1182002E0002000E01020D5
:105890008DF80500207A9DF80510B0EBD10F0DD0E2
:1058A000D4E900100DF10503007889790122FDF794
:1058B00011F818B99DF80500C0082072A07A40B30D
:1058C000207E02384FEA7000072822D8DFE800F077
:1058D000040621082121210A002004E0082002E01A
:1058E000102000E018208DF80600607A9DF8061060
:1058F000B0EBD10F0DD0D4E900100DF10603007804
:10590000C9790122FCF7E6FF18B99DF80600C00826
:105910006072A07A40B3608BBC2801D301200FE0F5
:10592000622801D302200BE02A2801D3032007E0DC
:10593000142801D3042003E00A2834BF06200520E0
:105940008DF80700E07A9DF8071088420CD0D4E962
:1059500000100DF10703007889780122FCF7BAFFE7
:1059600010B99DF80700E072A08BFEF76DFAE07F9A
:10597000FEF7D8FA94F8200010B10120FFF750FB91
:105980000020607502B0BDE8F081052003F056F9F3
:10599000707A0DF10103C00007308DF80100D6E9DF
:1059A000001001220078C9790127FCF793FF002835
:1059B0007FF42FAF2020012C8DF8010001D10020B1
:1059C00009E0062C01D2402005E06FF03F00152CC5
:1059D00038BF6FF07F0040F007008DF80200D6E975
:1059E00000100DF101030078897C0222FCF772FFA0
:1059F00000284FF001077FF40CAF777500270020D7
:105A0000002FBFD01DE700004AF23431C0F600017C
:105A100040F6F6304FF48062C823FFF781BD00BF27
:105A2000B0B582B005464AF2DB21C0F60001C5F3ED
:105A3000C10300F00300CC5C0A5C8DF805404AF21B
:105A4000D8248DF80420C5F38112C0F60004895CC7
:105A5000205C8DF806108DF80000E05CA15C8DF8EC
:105A600001008DF8021001AA40F226400321FFF741
:105A7000F3FCA0BB6A4640F22A400321FFF7ECFC8E
:105A800068BB76208DF8060045F23660ADF804005C
:105A900044F22660ADF80000662069078DF8020028
:105AA00021D4A8062DD4E8050BD59DF806009DF855
:105AB000021040F001008DF8060041F001008DF861
:105AC000020001AA4FF488600321FFF7C5FC30B93A
:105AD0006A4640F231400321FFF7BEFC00B34FF0AD
