:020000040800F2
:1000000008080020150200081D0200081F02000851
:100010002102000823020008250200080000000059
:10002000000000000000000000000000270200089F
:1000300029020008000000002B0200082D02000821
:100040002F0200082F0200082F0200082F020008CC
:100050002F0200082F0200082F0200082F020008BC
:100060002F0200082F0200082F0200082F020008AC
:100070002F0200082F0200082F0200082F0200089C
:100080002F0200082F0200082F0200082F0200088C
:100090002F0200082F0200082F0200082F0200087C
:1000A0002F0200082F0200082F0200082F0200086C
:1000B000E9210008FD210008112200082F02000894
:1000C0002F0200082F0200082F0200082F0200084C
:1000D0002F020008FD8C00082F020008614A00086A
:1000E0005D2400082F0200082F0200082F020008DC
:1000F0002F0200082F0200082F0200082F0200081C
:100100002F0200082F020008252200082F020008F5
:100110002F0200082F0200082F0200082F020008FB
:100120002F0200082F0200082F0200082F020008EB
:10013000DFF80CD009F0B8FA004800479501000834
:100140000808002080B504F0BBFC04F0CDFC4FF49F
:10015000165008F081FD4FF4165004F017FC41F6DC
:100160001F40002101F04CFE02F066F802F01AFF79
:1001700004F0D0FC08F0E0F908F00EFA01F0B8FE47
:1001800001F022FF01F072FF01F0C2FFBDE88040E4
:1001900002F0E2BEFFF7D6FF40F27C1640F23407D1
:1001A00040F278194FF00008C2F2000615A4C2F21E
:1001B0000007C2F2000900250AE0042808BF89F8F8
:1001C000008000BF012504F0EBFA0A2008F01CFDB6
:1001D000316879B1002DF5D1204609F0C9FA3068AF
:1001E0000F2809D00D28E8D138681828EADC053036
:1001F00006E000BF0025E6E738680628E2DB0538A0
:100200003860DFE7505332204B6579203D2025646C
:10021000000000000648804706480047FEE7FEE76A
:10022000FEE7FEE7FEE7FEE7FEE7FEE7FEE7FEE7A6
:10023000A11B00083101000840F080604EF60C510F
:1002400040F0FD70CEF200010860704710B5C17833
:1002500000294EF20011CEF200011AD04EF60C52D7
:10026000CEF200021268072323EA12220F23C2F102
:10027000040C23FA02F24378847890F800E003FA41
:100280000CF322401A43120101EB0E0383F8002302
:1002900000E080310078012300F01F0203FA02F22F
:1002A000C0F3421041F8202010BD00BF4FF680720D
:1002B000C1F6FF72114008434EF60851CEF200011C
:1002C0000860704700294EF61051CEF200010A680E
:1002D0000CBF22EA00001043086070474EF2100184
:1002E000CEF200010A68042822F0040208BF04329A
:1002F0000A607047A0F18040A0F584304FEAB0203A
:10030000062888BF704710B54AF2C021C0F6000128
:1003100051F820400121204600F084FA20460021B7
:10032000BDE8104000F07EBA80B50120012100F048
:1003300079FA01200021BDE8804000F073BA00BFC7
:100340002DE9F047CA7802F00F0CD30644BF8B7832
:100350004CEA030C09880B0625D082465AF8144B48
:1003600000F1100E00254FF001094FF00F08002793
:1003700006E000BF1E600137082F05F1040511D00B
:1003800009FA07F60E42F6D008FA05F324EA030349
:100390000CFA05F41C43282A5346EBD0482AEAD12C
:1003A0007346E7E70460B1F5807F38BFBDE8F087AA
:1003B000436800F1100E00F1140900254FF4807A13
:1003C0004FF00F08002705E034600137082F05F1D2
:1003D000040512D00AFA07F404EA0106A642F4D191
:1003E00008FA05F6B3430CFA05F63343282A4E46BD
:1003F000EAD0482AE9D17646E6E74360BDE8F087CF
:100400004FF6FF71C0F202410160704780680840FA
:1004100018BF0120704700BF806880B2704700BFDE
:10042000C068084018BF0120704700BFC06880B294
:10043000704700BF01617047416170471023002A77
:1004400008BF1423C1507047C160704701F5803266
:1004500082618161826181698069704740F2000C2C
:10046000C4F2010CDCF800304FF680721A4041EA09
:1004700000101043CCF80000704700BF1C21C4F2EC
:1004800020210860704700BFB0B50422C4F2010209
:10049000134602F1180E002848BF73461C6800F48A
:1004A0004013B3F5401F1FFA80FC06D1156824F0F5
:1004B000706325F07064146015E0C3020AD46FF015
:1004C0000F0303EA50430CFA03F324EA030343F057
:1004D000706308E0C0F30343032505FA03F324EA3D
:1004E000030343F070636FF00F0404EA50440029E3
:1004F0000CFA04F518BF2B43002848BF724613605E
:10050000B0BD00BF10B50C22082402EA810201F040
:10051000FC01C4F201044FF00F0C51F804E00CFA96
:1005200002F32EEA03030B510B5990401843085174
:1005300010BD00BFDC21C4F220210860704700001C
:1005400041F20000C4F202000168002241F0010102
:1005500001604168CFF6FF021140416001684FF62B
:10056000FF72CFF6F66211400160016821F480212C
:100570000160416821F4FE0141604FF41F01816078
:10058000704700BF41F20001C4F202010A68B0F5F1
:10059000803F22F480320A600A6822F480220A60D6
:1005A00005D0B0F5802F18BF70474FF4A0200A681F
:1005B00010430860704700BF81B041F20000C4F2F0
:1005C00002000021009100BF0168009A01320092F0
:1005D000009AB2F5A06F02D011F40031F4D0006897
:1005E000C0F3404001B07047420941F20001012AC6
:1005F000C4F2020103D0022A14BF24312031096859
:1006000000F01F0021FA00F000F00100704700BF69
:1006100041F20001C4F202010A6822F0F80242EA43
:10062000C0000860704700BF0021C4F2422108608A
:10063000704700BF41F20402C4F20202136808438B
:1006400023F47C1318431060704700BF6021C4F28C
:1006500042210860704700BF41F20401C4F2020168
:100660000A6822F0030210430860704741F2040058
:10067000C4F20200006800F00C00704741F204016F
:10068000C4F202010A6822F0F002104308607047C9
:1006900041F20401C4F202010A6822F4E06210434C
:1006A0000860704741F20401C4F202010A6822F4B2
:1006B000605242EAC0000860704700BF002941F262
:1006C0000901C4F202010A780CBF22EA00001043BB
:1006D00008707047D821C4F242210860704700BFFB
:1006E00041F20401C4F202010A6822F440421043BC
:1006F0000860704741F22001C4F202010022012883
:100700000A700A7003D0042818BF704705200870CB
:10071000704700BF40F28041C4F242210860704738
:1007200041F22001C4F202010A68104308607047D8
:1007300040F23C41C4F242210860704710B541F2DA
:100740000404C4F20204226802F00C02082A41F2F6
:100750000022C0F27A021CD12368D4F800C0C3F38F
:10076000834E5FEACC330EF1020C06D440F6001241
:10077000C0F23D020CFB02F20BE023689B0302D4A3
:100780000CFB02F205E040F60012C0F23D020CFB49
:1007900002F2026022684AF2FC23C2F30312C0F69E
:1007A00000039A5C0168D14041602268C2F30222D2
:1007B0009A5C21FA02F282602268C2F3C2229A5C39
:1007C0004AF2E823D140C1602268C0F60003C2F3B8
:1007D00081329A5CB1FBF2F1016110BD002941F256
:1007E0001401C4F202010A680CBF22EA000010439F
:1007F00008607047002941F21801C4F202010A683A
:100800000CBF22EA0000104308607047002941F243
:100810001C01C4F202010A680CBF22EA0000104366
:1008200008607047002941F20C01C4F202010A6815
:100830000CBF22EA0000104308607047002941F213
:100840001001C4F202010A680CBF22EA0000104342
:100850000860704740F24041C4F24221086070478E
:100860004C21C4F242210860704700BF41F20701E9
:10087000C4F202010870704741F22400C4F2020081
:10088000016841F080710160704700BF41F20801CA
:10089000C4F202010968084018BF0120704700BF78
:1008A00041F20A01C4F202010870704780B541F6B6
:1008B000FF71C4F20001884228DD44F2FF31C4F226
:1008C000010188423FDD44F6FF31C4F20101884254
:1008D0006EDD44F60041C4F20101884200F0B580AB
:1008E00045F20001C4F20101884200F0B68045F2F1
:1008F0000041C4F20101884218BF80BD4FF40010CE
:100900000121FFF78FFF4FF40010D7E040F6FF7191
:10091000C4F20001884232DC40F2FF71C4F20001EF
:1009200088425ADCB0F1804F00F09F8040F20041D5
:10093000C4F20001884240F0D08002200121FFF77C
:100940007DFF0220C4E043F2FF31C4F2010188427E
:1009500055DC42F20001C4F20001884200F08B80B5
:1009600042F60041C4F20101884240F0B6804FF4E3
:1009700000600121FFF756FF4FF400609EE041F256
:10098000FF71C4F2000188424DDC41F20001C4F263
:100990000001884277D041F20041C4F20001884250
:1009A00040F09B8020200121FFF748FF20208FE0AE
:1009B00044F20041C4F2010188426AD044F60001C9
:1009C000C4F20101884240F088804FF48020012168
:1009D000FFF728FF4FF4802070E040F60001C4F2DA
:1009E000000188425DD040F60041C4F20001884217
:1009F00073D108200121FFF721FF082068E043F2AE
:100A00000041C4F20101884251D044F20001C4F215
:100A10000101884261D14FF480300121FFF702FFCC
:100A20004FF480304AE041F60001C4F200018842F0
:100A300049D041F60041C4F2000188424DD18020E6
:100A40000121FFF7FBFE802042E04FF4002001214E
:100A5000FFF7E8FE4FF4002030E04FF48010012152
:100A6000FFF7E0FE4FF4801028E001200121FFF79E
:100A7000E5FE01202CE04FF480700121FFF7DEFE3F
:100A80004FF4807024E010200121FFF7D7FE1020E2
:100A90001EE04FF400300121FFF7C4FE4FF4003098
:100AA0000CE004200121FFF7C9FE042010E04FF400
:100AB00000500121FFF7B6FE4FF400500021BDE8C1
:100AC0008040FFF7AFBE40200121FFF7B7FE402076
:100AD0000021BDE88040FFF7B1BE80BD40F6FF3386
:100AE000B0F800C0C4F2000398420FDCB0F1804FB0
:100AF0001ED040F20043C4F20003984218D040F6E2
:100B00000003C4F20003984212D016E040F60043FE
:100B1000C4F2000398420BD043F20043C4F2010335
:100B2000984205D042F60043C4F20103984204D132
:100B30004B882CF0700243EA020C41F2004240F470
:100B40008063C4F20002934204D0CA882CF440733C
:100B500042EA030CA0F800C08A888285A0F1804296
:100B6000A2F596320B884FEAB222072A038507D8EE
:100B7000012303FA02F212F0E50F1CBF097A018685
:100B800001218182704700BFB0B5028C22F00102C2
:100B90000284038C8288B0F818C00C8923F0020309
:100BA0002343A0F180444D88A4F59634B1F800E0C9
:100BB0004FEAB424072C43EA050313D8012505FAAC
:100BC00004F414F0E50F0DD04C8923F00C0324F04D
:100BD00004048D8823438C892B4322F44072CD89F1
:100BE00022432A432CF0730545EA0E0582800583D3
:100BF000C98881860384B0BDB0B5028C22F0100292
:100C00000284038C8288B0F818E00C894D88B1F812
:100C100000C02C4343F2004523F02003C4F2010539
:100C2000A84243EA041305D042F60044C4F201048A
:100C3000A04211D14C896FF0400523F0C00305EAB2
:100C400004148D88234343EA05138C89CD8922F44B
:100C500040622C4342EA84022EF4E64545EA0C2524
:100C600082800583C98801870384B0BDB0B5028C3A
:100C700022F480720284038C8288B0F81CE00C8914
:100C80004D88B1F800C02C4343F2004523F40073B3
:100C9000C4F20105A84243EA042305D042F6004409
:100CA000C4F20104A04211D14C8940F2FF45240254
:100CB00023F44063AC438D88234343EA05238C89A6
:100CC000CD8922F440522C4342EA04122EF07305DF
:100CD00045EA0C0582808583C98881870384B0BD7D
:100CE00070B5028C43F2004622F480520284038CD9
:100CF0008288B0F81CE0B1F800C00C894D88C4F2BD
:100D00000106B04205D042F60046C4F20106B042E8
:100D100004D18E8922F4804242EA86122EF4E646FD
:100D200046EA0C268280868323F400532C43C9882C
:100D300043EA0432A0F84010028470BDF0B50A887E
:100D4000082A29D0042A52D0002A7BD14B88B1F836
:100D500004C0B1F808E0028C40F6FF3622F0010230
:100D60000284024632F8184F058CC4F20006B042E5
:100D70004FF6FC7600F38F80B0F1804F00F09E803C
:100D800040F20047C4F20007B84200F0978040F6F6
:100D90000007C4F200078EE04B88B1F804C0B1F838
:100DA00008E0028C40F6FF3722F48072028402468B
:100DB00032F81C4F058C6FF44056C4F20007B8425D
:100DC00006F5145600F38B80B0F1804F00F0998047
:100DD00040F20047C4F20007B84200F0928040F6AB
:100DE0000007C4F20007B84200F08B808EE04B8809
:100DF000B1F804C0B1F808E0028C40F6FF3722F0E9
:100E000010020284024632F8184F058C6FF0030678
:100E1000C4F20007B842A6F1AD0600F38880B0F135
:100E2000804F00F0968040F20047C4F20007B842BD
:100E300000F08F8040F60007C4F20007B84200F0CF
:100E400088808AE04B88B1F804C0B1F808E0028CD1
:100E500040F6FF3622F480520284024632F81C4FDC
:100E6000058CC4F20006B04246F6FF5600F38980B6
:100E7000B0F1804F00F0978040F20047C4F20007C5
:100E8000B84200F0908040F60007C4F20007B84274
:100E900000F089808AE040F60047C4F20007B842BB
:100EA0000CD042F60047C4F20107B84206D043F224
:100EB0000047C4F20107B84218BF083E35402B4333
:100EC00024F0F3044CEA0E1743F001032743078391
:100ED0000384C988038B23F00C0303837AE040F674
:100EE0000047C4F20007B8420BD043F20047C4F2F7
:100EF0000107B84205D042F60047C4F20107B842E4
:100F000004D14CF6FF761B0206F5345635402B43D0
:100F100024F0F3044CEA0E1743F4807327438783CD
:100F20000384C988838B23F00C03838352E040F64B
:100F30000047C4F20007B8420BD043F20047C4F2A6
:100F40000107B84205D042F60047C4F20107B84293
:100F500003D14FF6FC761B012D3E35402B4340F666
:100F6000FF452C4044EA0E3743F0100347EA0C27B4
:100F700007830384C988038B090223F44063038336
:100F800028E040F60047C4F20007B8420BD043F215
:100F90000047C4F20107B84205D042F60047C4F248
:100FA0000107B84202D14CF6FF761B0335402B43B4
:100FB00040F6FF454FEA0E372C4047EA0C2743F432
:100FC0008053274387830384C988838B090223F4D2
:100FD00040638383108808431080F0BD028B22F0A9
:100FE0000C020283028B114301837047028B22F4AF
:100FF00040620283028B42EA01210183704700BFF5
:10100000828B22F00C028283828B11438183704792
:10101000828B22F440628283828B42EA01218183A7
:10102000704700BF2DE9F04F4E888D884FF0010BBF
:10103000B6FA86F2012D08BF4FF0020B0C88570953
:10104000B1F808A0038C4FF6FC7E4FF6FC784FEA0F
:10105000470CE4B123F01003038440F6FF39048BFE
:10106000078CC4F200094845AEF1AD032ADCB0F1AB
:10107000804F39D040F20042C4F20002904233D097
:1010800040F60002C4F2000290422DD02FE023F07F
:101090000103038440F6FF39048B078CC4F2000976
:1010A000484577DCB0F1804F00F0888040F2004383
:1010B000C4F20003984200F0818040F60003C4F2BD
:1010C000000377E040F60042C4F2000290420BD0E9
:1010D00043F20042C4F20102904205D042F60042BF
:1010E000C4F20102904202D13601AEF12D0307EAAB
:1010F000030240F6FF432340324343EA0A3342F0FF
:10110000100243EA052303830284C988028B484501
:1011100022F440620283028B42EA01220283028CA3
:1011200022F001020284048B058C0DDCB0F1804FAB
:101130001ED040F20042C4F20002904218D040F6A5
:101140000002C4F200020FE040F60042C4F20002C6
:1011500090420DD042F60042C4F20102904207D004
:1011600043F20042C4F20102904218BFAEF10808F7
:1011700005EA080224F0F30342EA0C0243EA0A13E8
:1011800042F001025B4403830284028B22F00C02D2
:1011900002836CE040F60043C4F2000398420DD095
:1011A00042F60043C4F20103984207D043F20043E1
:1011B000C4F20103984218BFAEF1080807EA080319
:1011C00024F0F304334344EA0A1443F001032C43AC
:1011D00004830384C988038B484523F00C030383ED
:1011E000038BAEF1AD0643EA01030383038C23F0C6
:1011F00010030384048B058C0FDCB0F1804F1ED0EC
:1012000040F20043C4F20003984218D040F60003B5
:10121000C4F20003984212D015E040F60043C4F235
:10122000000398420BD043F20043C4F201039842FA
:1012300005D042F60043C4F20103984203D14FEABD
:101240000C1CAEF12D0640F6FF4705EA06032740C9
:1012500043EA0C0347EA0A3743F0100347EA0B223C
:1012600002830384028B090222F440620283028B10
:1012700011430183BDE8F08FB1F800C04B888A8824
:1012800043EA0C0343EA020CCB880A8943EA0C03C5
:101290001A434B8989891A431143A0F844107047B7
:1012A00000220021CFF6FF720180C180C0F8022029
:1012B000017270470021C160816041600160704728
:1012C000002101220160426001817047002181817B
:1012D00081604160016070470288002918BF0121C8
:1012E00022F0010211440180704700BFB0F8442091
:1012F000002918BF01216FF3DF3242EAC131A0F8A3
:1013000044107047002A82890CBF22EA0101114370
:1013100081817047818270471143A0F8481070475F
:10132000002A82890CBF22EA0101114381817047A2
:10133000018921F007010181704700BF028922F075
:10134000700211430181018941F007010181704759
:10135000028922F0700211430181704770B5058C3B
:1013600060294FF6FC7C1DD125F01005058440F660
:10137000FF35B0F818E0048CC4F20005A842ACF1C7
:10138000AD0529DCB0F1804F38D040F20046C4F200
:101390000006B04232D040F60006C4F20006B04269
:1013A0002CD02EE025F00106068440F6FF35B0F87B
:1013B00018E0048CC4F20005A8422FDCB0F1804F85
:1013C00040D040F20045C4F20005A8423AD040F6B1
:1013D0000005C4F2000531E040F60046C4F2000604
:1013E000B0420BD043F20046C4F20106B04205D031
:1013F00042F60046C4F20106B04202D11201ACF13D
:101400002D0504EA0506324340F6FF4642F010027D
:101410000EEA06041D034FF480731CE040F60045FD
:10142000C4F20005A8420DD042F60045C4F2010501
:10143000A84207D043F20045C4F20105A84218BFF4
:10144000ACF1080C04EA0C06324342F001022EF023
:10145000F3051C01012344EA050633430383028498
:10146000028922F0700211430181018941F00701D4
:10147000018170BDB0F808C011435FFA8CFC41EAED
:10148000032141EA0C010181018941F077010181C9
:10149000704700BFB0F808C011435FFA8CFC41EA06
:1014A000032141EA0C010181704700BFB0F808C078
:1014B00011435FFA8CFC41EA032141EA0C010181EE
:1014C000018941F480410181704700BF018582821A
:1014D000704700BF028822F07002114301807047FC
:1014E000B0B5B0F808C0B0F818E0058C2CF00704CF
:1014F00021434FF6FC4404EA0E0425F0220542EA9B
:10150000031204F201142A43018104830284B0BD52
:10151000028B22F07002114301837047028B22F488
:10152000E04242EA01210183704700BF828B22F032
:101530007002114381837047828B22F4E04242EAB9
:1015400001218183704700BF0288002918BF012153
:1015500022F0800242EAC11101807047828800298E
:1015600018BF012122F0040242EA81018180704704
:101570008288002918BF012122F0080242EAC10135
:10158000818070478288002918BF012122F0010262
:1015900011448180704700BF028B22F00802114382
:1015A00001837047028B22F4006242EA0121018329
:1015B000704700BF828B22F008021143818370477D
:1015C000828B22F4006242EA01218183704700BFCE
:1015D000028B22F00402114301837047028B22F434
:1015E000806242EA01210183704700BF828B22F0B2
:1015F0000402114381837047828B22F4806242EAA5
:1016000001218183704700BF028B22F080021143C9
:1016100001837047028B6FF3DF3242EA01210183BD
:10162000704700BF828B22F0800211438183704794
:10163000828B6FF3DF3242EA01218183704700BF62
:10164000028C22F00202114301847047028C22F0C6
:101650000802114301847047028C22F0200242EA02
:1016600001110184704700BF028C22F0800242EA1F
:1016700001110184704700BF028C22F4007242EA1B
:1016800001210184704700BF028C22F4006242EA0B
:1016900001210184704700BF028C22F4005242EA0B
:1016A00001310184704700BF80B54FF0010CB0F8E4
:1016B00020E00CFA01F32EEA03030384038C02FA00
:1016C00001F11943018480BD80B54FF0040CB0F8DE
:1016D00020E00CFA01F32EEA03030384038C02FAE0
:1016E00001F11943018480BD10B54FF0010CB0F831
:1016F00020E00CFA01F32EEA030C6FF0080300F16E
:1017000018041942A0F820C00AD0081F80B241086E
:10171000635804EB500023F4E0431202635007E0E7
:101720004B0853F804C004EB51002CF07001195120
:10173000016892B21143016010BD00BF0288002908
:1017400018BF012122F0020242EA410101807047E4
:101750000288002918BF012122F0040242EA810117
:10176000018070478288002918BF012122F0800281
:1017700042EAC11181807047028822F0080202808B
:101780000288114301807047828822F070028280B3
:101790008288114381807047028922F0070202810A
:1017A0000289114301817047028922F0800202817F
:1017B0000289114301817047818470478185704798
:1017C000818670470187704781877047A0F8401075
:1017D000704700BF028822F44072028002881143E1
:1017E00001807047808E7047008F7047808F7047F0
:1017F000B0F84000704700BF808C7047008D704784
:10180000008A084018BF0120704700BFC943018209
:10181000704700BF028A80890A4000EA010018BFB1
:101820000122002818BF012010407047C9430182DF
:101830007047000080B544F6FF31C4F200018842D1
:101840001EDD44F60041C4F2000188422CD045F26E
:101850000001C4F2000188422ED043F60001C4F218
:101860000101884218BF80BD4FF480400121FEF77E
:10187000D9FF4FF480400021BDE88040FEF7D2BF81
:1018800044F20041C4F2000188421DD044F6000138
:10189000C4F20001884223D14FF480200121FEF7D9
:1018A000CDFF4FF4802016E04FF400200121FEF719
:1018B000C5FF4FF400200EE04FF480100121FEF729
:1018C000BDFF4FF4801006E04FF400300121FEF719
:1018D000B5FF4FF400300021BDE88040FEF7AEBFF9
:1018E00080BD00BF70B586B00446008A0D46C98829
:1018F00020F4405008432082A0894EF6F31108409E
:10190000A9882A896B89084310431843A081A08ABB
:10191000A98920F44070084301AEA0823046FEF74A
:101920000DFF43F6000106F10800C4F201018C42EC
:1019300008BF06F10C0000681922B4F90C105043DE
:101940002A680123B1F1FF3FC8BF022302FA03F165
:10195000B0FBF1F048F21F51C5F2EB11A0FB0123DF
:101960005A096FF0630302FB0300B4F90C3003263D
:10197000B3F1FF3FC8BF042600FA06F000F13200C1
:10198000A0FB01014FF00700C8BF0F2000EA511073
:1019900040EA0210208106B070BD00BF4FF416511E
:1019A00000224FF4402380E80E008281704700BF80
:1019B00080B5028A0B8822F4706C4A88B1F804E082
:1019C00043EA0C03C9881A4342EA0E02114301821A
:1019D00080BD00BF002141600160704782890029FD
:1019E00018BF012122F4005242EA4131818170473F
:1019F000C1F3421301F01F0C1421022B08BF102168
:101A0000012B4FF0010308BF0C21002A03FA0CF24E
:101A100043580CBF23EA02021A434250704700BFEA
:101A2000002A828A0CBF22EA010111438182704799
:101A3000028A22F00F020282028A11430182704759
:101A4000828922F4006282818289114381817047F8
:101A50008289002918BF012122F0020242EA4101D5
:101A600081817047028A22F020020282028A114399
:101A700001827047028A002918BF012122F48042A6
:101A800042EA8131018270476FF35F2181807047A4
:101A900080886FF35F207047818941F00101818167
:101AA000704700BF028BD2B20283028B42EA01214F
:101AB00001837047028B22F0FF020283028B1143E5
:101AC00001837047828A002918BF012122F0200279
:101AD00042EA411181827047828A002918BF0121A0
:101AE00022F0100242EA011181827047828A0029A5
:101AF00018BF012122F0080242EAC1018182704729
:101B00008289002918BF01216FF3DF3242EAC13117
:101B100081817047828A002918BF012122F4006266
:101B200042EAC12181827047828A22F004028282C5
:101B3000828A114381827047828A002918BF01215D
:101B400022F0020242EA4101818270470088084087
:101B500018BF0120704700BFC9430180704700BF14
:101B6000C1F34212022A06D0012A14BF00F1140266
:101B700000F10C0201E000F110021288008801F06F
:101B80001F03090ADA40C840104000F00100704706
:101B9000090A012202FA01F1C943018070470000DD
:101BA00082B041F20400C4F2020050F8041C00228A
:101BB00041F0010140F8041C0168CFF6FF0211401A
:101BC000016050F8041C4FF6FF72CFF6F662114028
:101BD00040F8041C50F8041C21F4802140F8041C37
:101BE000016821F4FE0101604FF41F0141600021F2
:101BF0000191009150F8041C41F4803140F8041C1C
:101C000050F8041C01F40031009101990131019157
:101C1000009919B90199B1F5A06FF1D150F8041CE0
:101C2000890354BF0021012100910099012936D177
:101C300042F20001C4F202010A6842F010020A6096
:101C40000A6822F007020A600A6842F002020A608B
:101C50000168016001680160016841F48061016010
:101C6000016821F47C110160016841F4E811016010
:101C700050F8041C41F0807140F8041C50F8041C1A
:101C80008901FBD5016821F003010160016841F081
:101C900002010160016801F00C010829FAD14EF639
:101CA0000850CEF200004FF00061016002B07047B2
:101CB00041F20400C4F20200016801F00C0108299D
:101CC00041F20021C0F27A0117D102680368C2F321
:101CD0008342DB0302F1020205D440F60011C0F298
:101CE0003D01514309E003689B0301D4514304E0E3
:101CF00040F60011C0F23D01514340F23802C2F2F9
:101D00000002116000684AF2EC21C0F30310C0F633
:101D10000001085C116821FA00F0106070470000B3
:101D200070B582B0042001210426FEF763FD08206F
:101D30000121FEF75FFD10200121FEF75BFD202051
:101D40000121FEF757FD01200121FEF753FD40F26E
:101D50000020C0F230000121FEF796FB482043F23C
:101D600000448DF807004FF48050C4F2010401AD27
:101D7000ADF80400A4F530502946FEF7E1FA33200F
:101D8000C1F203000190A4F520502946FEF7D8FACD
:101D900041F23000ADF80400A4F510502946FEF7DA
:101DA000CFFAA4F500502946ADF80460FEF7C8FA52
:101DB00040F2901048F2801248F28813C4F22220B8
:101DC0000021C4F22122C4F22223016211610160C8
:101DD0001160196051614160516020460021FFF798
:101DE000F3FC20460021FFF7F1FC20460021FFF71D
:101DF000E7FC20460021FFF7E5FC02B070BD00BF04
:101E0000B0B50C460546FFF78BFF4FF4005001219B
:101E1000FEF7F0FC10200121FEF7ECFC41F2180067
:101E2000C4F20200016841F400510160016841F010
:101E30001001016041F20000C4F20100416821F08C
:101E4000FF014160416841F0BB014160016821F040
:101E50007F410160016841F03B41016043F218405D
:101E6000C4F2010085820482018841F06001018092
:101E7000018841F4C0410180818841F06001818086
:101E8000818841F4C0418180018841F008010180CE
:101E9000018841F400610180818841F0080181805E
:101EA000818841F400618180018941F00101018153
:101EB000018941F010010181018941F480710181A2
:101EC000018941F480510181002181830184818451
:101ED0000185818D41F4004181854FF4004120F856
:101EE000181C30F8181C41F0010120F8181CB0BD76
:101EF00010B54FF6000040F60401CFF6FF70C4F2B3
:101F000001010A580C2442F480720A5041F2180070
:101F1000C4F202004268C4F2000442F001024260CE
:101F20000268012342F004020260026842F00802E3
:101F3000026008681C2220F070400860086840F0C9
:101F40008040086040F60040C4F20100016821F4BE
:101F500070410160016841F48041016020880321E3
:101F600040F001002080208840F0400020800120C7
:101F700006F096FD0020A0834FF6FF7020844FF0FE
:101F80008040018821F440710180018821F06001C6
:101F90000180A18941F00101A181A18941F48071F1
:101FA000A181A18A21F00201A182A18A21F0200150
:101FB000A18234F8041C41F0030124F8041C0188B8
:101FC00041F00101018010BD10B541F21800C4F2CA
:101FD0000200416840F2004441F0020141600168A2
:101FE000C4F2000441F00801016040F60000C4F2B0
:101FF000010001681D2221F07F4101600168012379
:1020000041F088410160A089032140F00100A081D6
:10201000A08940F04000A081012006F041FD002091
:1020200020854FF6FF70A085208820F44070208026
:10203000208820F060002080208B40F00100208369
:10204000208B40F480702083208C20F002002084BC
:10205000208C20F020002084208940F00300208183
:10206000208840F00100208010BD00BF10B541F273
:102070001800C4F20200416840F6000441F0040177
:1020800041600168C4F2000441F00801016040F6BB
:102090000040C4F2010001681E2221F07F4101606E
:1020A0000168012341F088410160A089032140F0CB
:1020B0000100A081A08940F04000A081012006F02D
:1020C000EFFC002020854FF6FF70A085208820F4CB
:1020D00040702080208820F060002080208B40F01D
:1020E00001002083208B40F480702083208C20F01E
:1020F00002002084208C20F020002084208940F0E1
:1021000003002081208840F00100208010BD00BF26
:1021100010B541F21800C4F20200416840F60044D4
:1021200041F0080141600168C4F2000441F004017B
:10213000016040F60000C4F201000168322221F083
:10214000FF0101600168012341F044010160A089A1
:10215000032140F00100A081A08940F04000A0814F
:10216000012006F09DFC002020854FF6FF70A08521
:10217000208820F440702080208820F0600020809B
:10218000208B40F001002083208B40F4807020835E
:10219000208C20F002002084208C20F0200020845D
:1021A000208940F003002081208840F00100208039
:1021B00010BD00BF0238032884BF002070472421CF
:1021C000C4F20001DFE800F00A02050801F58061B1
:1021D00004E001F5006101E001F54061B1F90000A2
:1021E00000220A80704700BF1020C4F2000001885E
:1021F000018821F001010180704700BF40F21040CA
:10220000C4F200000188018821F0010101807047BB
:1022100040F61000C4F200000188018821F001019D
:102220000180704740F61040C4F200000188018828
:1022300021F001010180704741F20401C4F2020162
:10224000486940F00400486140F60000C4F2010013
:10225000026822F470020260486940F4007048612C
:10226000886840F400708860886820F40070886096
:10227000086820F4404008600A6842F2084042F4CE
:102280000042C4F201000A6050F8041C4FF6FF72CD
:10229000C0F2F002114040F8041C50F8041C40F851
:1022A000041C50F8041C21F4807140F8041C0168DF
:1022B00021F002010160016821F4602101600168E0
:1022C00041F460210160016841F4801101600168FE
:1022D00021F400610160416A21F470014162416AA8
:1022E00000214162816821F470018160816841F4BC
:1022F00060318160016841F001010160016841F0D5
:102300000801016001680907FCD4016841F004017B
:10231000016000BF01684907FCD4704742F23441B4
:10232000C4F201010A6822F01F020A600A68104321
:10233000086051F82C0C40F4800041F82C0C00BFD0
:1023400051F8340C8007FBD5886980B2704700BF14
:1023500080B542F23440C4F20100016821F01F014F
:102360000160016841F00501016050F82C1C41F446
:10237000800140F82C1C00BF50F8341C8907FBD5A5
:10238000806980B206F0E0FF46F26663C4F20A0399
:102390004FF0663206F0B1FE0023C4F2260300229D
:1023A00006F0ABFE0023C4F25903002206F0A5FE9E
:1023B0000023C3F63073002206F09FFE06F0EAFF0A
:1023C00080BD00002DE9F04381B004460E4608466A
:1023D0002146174606F074FD45F20469C3F61E79DE
:1023E00005463846494606F071FD2946804606F006
:1023F00015FD06F0B6FF40F23C01C2F20001086094
:102400002046314606F00AFD064687F00040494660
:1024100006F05CFD3146044606F000FD06F0A1FF23
:1024200040F24001C2F2000108602046294606F051
:10243000F5FC06F096FF40F24401C2F2000108608C
:102440004046314606F0EAFC06F08BFF40F24801B8
:10245000C2F20001086001B0BDE8F0832DE9F04F41
:1024600081B048F23C10C4F221200068002840F0FE
:10247000598240F21440C4F201004FF4004101605F
:1024800040F24C00C2F20000016840F2B412C4F203
:10249000222239B10139016004D1C82101601068DC
:1024A000C043106040F2AF0140F2D910C2F2000107
:1024B000C2F2000002780B78012AB3FA83F24FEAE5
:1024C00052120A700CD140F2D811C2F200010A78FF
:1024D0000132D3B20A2B0A7002BF00220A700270C6
:1024E0000220FFF767FE40F29412C2F20002136866
:1024F000414240F29C05181AC2F200051060032008
:102500002960FFF757FE40F29811C2F2000140F235
:10251000A0030A68C2F20003186010440860042097
:10252000FFF748FE40F29C11C2F2000140F2A40302
:102530000A68C2F200031860104408600520FFF723
:1025400039FE40F2A012C2F20002136840F2A8075E
:102550004142C2F20007181A3960106006F018F9FB
:10256000FFF7F6FE06F0E2FE40F2B816C2F20006F1
:10257000316802460846114606F050FC40F2BC178E
:10258000C2F20007044638684FF07E51346006F00E
:1025900045FC0021C4F2C821386006F0B9FE78B1CC
:1025A0000021C4F2C821204606F0C2FC06F0D9FE84
:1025B00040F2B411C2F200010860002030603860BF
:1025C00040F23C01C2F200012868096840F2B809F3
:1025D000461A40F25400C2F20000C2F20009D0F8DC
:1025E0000080D9F80000301A06F0A0FE40F2500139
:1025F000C2F200010D680746304606F097FE01461C
:10260000284606F063FC04464046394606F05EFC68
:10261000214606F003FC40F2BC07C2F2000739680D
:102620000446084606F082FE0146204606F0F6FB08
:1026300006F097FE4FF4E15AB0F5E15FA8BF5046AF
:102640004EF2E03B40F25C11CFF6FF7B10F5E15F0C
:10265000D8BF5846C2F200013860086040F2A000BE
:1026600040F24001C9F80060C2F20000C2F200016D
:1026700040F2C00900680968C2F20009D9F80020D8
:10268000461AB01A06F052FE0446304606F04EFED8
:102690000146284606F01AFC07464046214606F049
:1026A00015FC394606F0BAFB40F2C407C2F2000737
:1026B00039680446084606F039FE0146204606F011
:1026C000ADFB06F04EFEB0F5E15FA8BF504610F539
:1026D000E15FD8BF5846C9F8006040F26019C2F205
:1026E00000093860C9F8000040F2A40040F244013B
:1026F000C2F20000C2F2000140F2C80B0068096893
:10270000C2F2000BDBF80020461AB01A06F00EFEEB
:102710000446304606F00AFE0146284606F0D6FB7F
:1027200007464046214606F0D1FB394606F076FBC7
:1027300040F2CC07C2F2000739680446084606F0AA
:10274000F5FD0146204606F069FB06F00AFEB0F5ED
:10275000E15FA8BF50464EF2E03110F5E15FCFF6E1
:10276000FF71D8BF0846CBF8006040F2641BC2F28C
:10277000000B3860CBF8000040F2A80040F248019E
:10278000C2F20000C2F2000140F2D00700680968FE
:10279000C2F200073A68461AB01A06F0C7FD0446AE
:1027A000304606F0C3FD0146284606F08FFB05467D
:1027B0004046214606F08AFB294606F02FFB40F2F0
:1027C000D405C2F2000529680446084606F0AEFDAD
:1027D0000146204606F022FB06F0C3FDB0F5E15F9E
:1027E000B8BF82464EF2E030CFF6FF7040F2681478
:1027F0001AF5E15FD8BF8246C2F200040020C5F896
:1028000000A03E60C4F800A000F0B0F940F25C13F4
:10281000C2F200034EF20C521868CFF6FF729042DB
:10282000B8BF1A60186841F6F5218842A4BF41F686
:10283000F4201860D9F8000041F6F5219042B8BFA5
:10284000C9F80020D9F8000048F288158842A4BFD2
:1028500041F6F420C9F80000DBF8000041F6F5214C
:102860009042B8BFCBF80020DBF8000040F2B41E65
:102870008842A4BF41F6F420CBF80000206841F65E
:10288000F5219042B8BF22602068C4F22225884218
:10289000A4BF41F6F42020601F68D9F80030FA0F79
:1028A000FE43C4F2222EDBF800102068F60F2A60E7
:1028B00043F2344248F23C1C002F4EF8046C48BFEF
:1028C0007F42C4F20102DE43C4F2212C9781DF0F64
:1028D000F60F002BCCF85870CCF8546048BF5B4220
:1028E00001294FF000074FF000061381B8BF012700
:1028F0000029C8BF01264EF8206C4EF8247C48BF42
:1029000049420023918001284FF00001B8BF012106
:102910000028C8BF0123CCF84830CCF8441048BF89
:1029200040421080002001B0BDE8F08F2DE9F04159
:1029300040F2B808C2F20008441A40F25400D8F835
:102940000010C2F200000568601A06F0EFFC40F2C9
:102950005001C2F200010E680746204606F0E6FC70
:102960000146304606F0B2FA06462846394606F0D9
:10297000ADFA314606F052FA40F2BC06C2F2000649
:1029800031680546084606F0D1FC0146284606F0A7
:1029900045FA06F0E6FCB0F5E15FA8BF4FF4E15060
:1029A0004EF2E031CFF6FF7110F5E15FD8BF084677
:1029B0003060C8F80040BDE8F08100BF2DE9F0416B
:1029C00040F2C008C2F20008441A40F25400D8F89D
:1029D0000010C2F200000568601A06F0A7FC40F281
:1029E0005001C2F200010E680746204606F09EFC28
:1029F0000146304606F06AFA06462846394606F091
:102A000065FA314606F00AFA40F2C406C2F2000640
:102A100031680546084606F089FC0146284606F05E
:102A2000FDF906F09EFCB0F5E15FA8BF4FF4E15060
:102A30004EF2E031CFF6FF7110F5E15FD8BF0846E6
:102A40003060C8F80040BDE8F08100BF2DE9F041DA
:102A500040F2C808C2F20008441A40F25400D8F804
:102A60000010C2F200000568601A06F05FFC40F238
:102A70005001C2F200010E680746204606F056FCDF
:102A80000146304606F022FA06462846394606F048
:102A90001DFA314606F0C2F940F2CC06C2F2000639
:102AA00031680546084606F041FC0146284606F016
:102AB000B5F906F056FCB0F5E15FA8BF4FF4E15060
:102AC0004EF2E031CFF6FF7110F5E15FD8BF084656
:102AD0003060C8F80040BDE8F08100BF2DE9F0414A
:102AE00040F2D008C2F20008441A40F25400D8F86C
:102AF0000010C2F200000568601A06F017FC40F2F0
:102B00005001C2F200010E680746204606F00EFC96
:102B10000146304606F0DAF906462846394606F000
:102B2000D5F9314606F07AF940F2D406C2F2000631
:102B300031680546084606F0F9FB0146284606F0CE
:102B40006DF906F00EFCB0F5E15FA8BF4FF4E1505F
:102B50004EF2E031CFF6FF7110F5E15FD8BF0846C5
:102B60003060C8F80040BDE8F08100BF2DE9F043B7
:102B700081B040F2AC05C2F200052F7840F25C0053
:102B8000A7F13101CAB240F26004052AC2F2000086
:102B9000C2F2000406D849B29CA353F821100132B6
:102BA00002602160006840F23406C2F2000619217A
:102BB0008000316006F0BAFB21680446084606F042
:102BC000B5FBA7F1610140F26C1740F2701840F2BA
:102BD00074191929C2F20007C2F20008C2F20009F2
:102BE00011D8DFE801F00D1010313610383E10100A
:102BF000101010101010464B4E5510105B60646A98
:102C0000002038602AE0386806F0E3FB47F2A404AD
:102C10004AF2D735C0F63D24C3F6F07522462B465E
:102C200006F0DDFA06F0E8FBD8F800103860084638
:102C300006F0CFFB22462B4606F0D1FA06F0DCFB6D
:102C4000C8F80000002043E000203860C8F8000009
:102C500030E01B200EE0386084F00040C8F800002F
:102C600004E080F000403860C8F80040C9F8004037
:102C70002DE0172030600020287028E00020386008
:102C800021E0002084F000413860C8F800101CE00A
:102C900080F00040386084F0004014E0002038608C
:102CA000C8F8004011E0014606F0B8F809E03860C5
:102CB000C8F8004084F0004007E04FF0404106F0C3
:102CC00005F938600020C8F80000C9F800000120AC
:102CD00031681A29A4BF1921316031680029DCBF8D
:102CE0000121316050B140F2AD00C2F2000000217C
:102CF000017040F2AE00C2F20000017035683E681B
:102D0000684206F013FB04463046214606F0F2FA0C
:102D1000002808BF3C603E68284606F007FB0546D1
:102D20003046294606F0CAFA002808BF3D60D8F8A8
:102D30000000214606F0DEFA002808BFC8F800406F
:102D4000D8F80000294606F0B9FA002808BFC8F8EC
:102D50000050D9F80000214606F0CCFA002808BF40
:102D6000C9F80040D9F80000294606F0A7FA002863
:102D700008BFC9F800503E68D8F80040D9F8007084
:102D80002046314606F09CF845F20469C3F61E79E8
:102D900005463846494606F099F82946804606F029
:102DA0003DF806F0DEFA40F23C01C2F20001086094
:102DB0003046214606F032F8064687F00040494684
:102DC00006F084F83146044606F028F806F0C9FA01
:102DD00040F24001C2F2000108602046294606F098
:102DE0001DF806F0BEFA40F24401C2F2000108608C
:102DF0004046314606F012F806F0B3FA40F24801B8
:102E0000C2F20001086001B0BDE8F08301000000DB
:102E100002000000020000000300000003000000A8
:102E20000300000040F25C12C2F20002136841424B
:102E30008B42B8BF116013688342C8BF106040F274
:102E40006012C2F2000213688B42B8BF11601368AF
:102E50008342C8BF106040F26412C2F200021368DD
:102E60008B42B8BF116013688342C8BF106040F244
:102E70006812C2F2000213688B42B8BF1160116879
:102E80008142C8BF10607047B0B56FEA000E48F2CB
:102E900088144FEAD07C4FEADE75C4F2222440F257
:102EA000901EC4F800C0C4F2222E43F2344C002815
:102EB000CEF8205048BF4042C4F2010CACF80C00E0
:102EC000C843C50F48F28010CC0FC4F2212000295E
:102ED0004461056148BF4942012A4FF000044FF0A8
:102EE0000005ACF80810B8BF0124002AC8BF0125AE
:102EF000CEF80450CEF8004048BF52420021ACF852
:102F00000420012B4FF00002B8BF0122002BC8BFE4
:102F100001214160026048BF5B42ACF80030B0BDA7
:102F2000002848BF40427047B0F5FA6F08DB40F216
:102F30003010C4F22120006800281CBF0020704718
:102F400043F23440C4F2010000218181018181807B
:102F5000018001207047000080B541F21800C4F2E2
:102F600002000168012241F00801016040F60440BE
:102F7000C4F20100016821F070410160016841F074
:102F800000410160816841F40041816001200F210E
:102F900005F0C0FD0220012128220223BDE8804067
:102FA00005F07EBD41F21800C4F20200016841F054
:102FB00004010160016841F01001016041F200016B
:102FC000C4F201010A6822F470620A600A6842F4DD
:102FD00000620A60026842F01002026008684FF264
:102FE000F00290430860086843F230021043086022
:102FF0004FF60000CFF6FF700A5822F470220A50F4
:103000000A5842F440320A50704700BF2DE9F0439D
:1030100081B040F290090125C2F200094FF000088A
:10302000ADF8025089F80180ADF80250BDF80210E9
:10303000FF292ED840F2081740F290160446C4F239
:103040002227C4F2212609E0BDF802004000ADF8B5
:103050000200BDF80200B0F5807F1AD2BDF8020070
:10306000204018BF0120F8670520356005F0B6FD47
:103070000520C6F8008005F0B1FD356038680028ED
:10308000E2D0BDF8020099F80110084389F8010068
:10309000DAE7102001B0BDE8F04305F09FBD00BFA6
:1030A0002DE9F04782B040F20814C4F222244FF018
:1030B000000840F2100940F2900AC4F88480C2F27D
:1030C00000090127C2F2000A99F80050ADF8047017
:1030D0008AF80180ADF80470BDF8040040F2901643
:1030E000FF28C4F221261DD9102005F077FD99F89C
:1030F0000150ADF806708AF80180ADF80670BDF891
:103100000600FF284FD801274FF0000830E000BF2D
:10311000BDF804004000ADF80400BDF80400B0F5AF
:10312000807FE1D2BDF80400284018BF0120E0678D
:103130000520376005F052FD0520C6F8008005F037
:103140004DFD376020680028E2D0BDF804009AF8F1
:10315000011008438AF80100DAE700BFBDF8060055
:103160004000ADF80600BDF80600B0F5807F1AD229
:10317000BDF80600284018BF0120E0670520376031
:1031800005F02CFD0520C6F8008005F027FD37600E
:1031900020680028E2D0BDF806009AF80110084324
:1031A0008AF80100DAE7102005F018FD0120C4F8C4
:1031B00084009AF80100733818BF012002B0BDE8FE
:1031C000F08700BF2DE9F04782B040F2081AC4F240
:1031D000222A4FF00008012740F2100940F2900522
:1031E0008DF80380ADF80070CAF88480C2F200093F
:1031F000C2F2000599F80040ADF8047085F801802E
:10320000ADF80470BDF8040040F29016FF28C4F237
:1032100021261DD9102005F0E1FC99F80140ADF8F8
:10322000067085F80180ADF80670BDF80600FF282D
:103230004FD801274FF0000830E000BFBDF8040070
:103240004000ADF80400BDF80400B0F5807FE1D285
:10325000BDF80400204018BF0120CAF87C000520FA
:10326000376005F0BBFC0520C6F8008005F0B6FC11
:103270003760DAF800000028E0D0BDF80400697873
:1032800008436870DAE700BFBDF806004000ADF8FB
:103290000600BDF80600B0F5807F1AD2BDF8060022
:1032A000204018BF0120CAF87C000520376005F0D7
:1032B00095FC0520C6F8008005F090FC3760DAF830
:1032C00000000028E0D0BDF8060069780843687067
:1032D000DAE7102005F082FC02208DF803009DF84B
:1032E0000300082837D8012700240BE0102005F040
:1032F00075FC9DF8030001308DF803009DF8030074
:10330000092828D2ADF80070BDF80000FF280BD9BD
:10331000ECE700BFBDF800004000ADF80000BDF8CC
:103320000000B0F5807FE1D20520376005F056FC43
:103330000520346005F052FC3760DAF80000002800
:10334000E8D0BDF800009DF80310695C9DF80320EB
:103350000843A854DEE70120CAF8840002B0BDE8A3
:10336000F08700BFB0B540F29005C2F2000500241E
:103370002C72C5E90044FFF725FFB5F8030040F2C1
:10338000B401C2F20001088040F21201C2F2000151
:1033900031F81420013A20FA02F2D20704F10102B6
:1033A00003D00F2C1446F3D30022D0B2B0BD00BF1F
:1033B00040F29000C2F2000000210172C0E9001149
:1033C000704700BF40F29001C2F20001085C7047F4
:1033D0002DE9F04F81B040F208168146C4F2222652
:1033E00040F290174FF0000A10208846C4F22127BF
:1033F000C6F884A005F0F2FB40F2900B0125C2F262
:10340000000BADF802508BF801A0ADF80250BDF8EA
:103410000200FF281AD9102005F0E0FBADF8025099
:103420008BF801A0ADF80250BDF80200FF284CD87F
:10343000012400252EE000BFBDF802004000ADF8D9
:103440000200BDF80200B0F5807FE4D2BDF80200B2
:1034500000F00100F06705203D6005F0BFFB05208E
:10346000C7F800A005F0BAFB3D6030680028E3D043
:10347000BDF802009BF8011008438BF80100DBE760
:10348000BDF802004000ADF80200BDF80200B0F542
:10349000807F1AD2BDF8020010F0420018BF012050
:1034A000F06705203C6005F099FB05203D6005F0C4
:1034B00095FB3C6030680028E2D0BDF802009BF824
:1034C000011008438BF80100DAE7102005F086FBB5
:1034D00001250024ADF802508BF80140ADF80250F0
:1034E000BDF80200FF2819D9102005F077FBADF8D0
:1034F00002508BF80140ADF80250BDF80200FF28E1
:1035000049D8012400252BE0BDF802004000ADF8A9
:103510000200BDF80200B0F5807FE5D2BDF80200E0
:103520000520F4673D6005F059FB05203C6005F07F
:1035300055FB3D6030680028E6D0BDF802009BF8DE
:10354000011008438BF80100DEE700BFBDF8020060
:103550004000ADF80200BDF80200B0F5807F1AD23D
:10356000BDF8020010EA090018BF0120F06705202D
:103570003C6005F033FB05203D6005F02FFB3C600F
:1035800030680028E2D0BDF802009BF80110084323
:103590008BF80100DAE7102005F020FB01254FF041
:1035A0000009ADF802508BF80190ADF80250BDF85B
:1035B0000200FF281AD9102005F010FBADF80250C8
:1035C0008BF80190ADF80250BDF80200FF284AD8F0
:1035D0000024012530E000BFBDF802004000ADF836
:1035E0000200BDF80200B0F5807FE4D2BDF8020011
:1035F00010EA080018BF0120F06705203D6005F0C3
:10360000EDFA0520C7F8009005F0E8FA3D60306853
:103610000028E1D0BDF802009BF8011008438BF8A8
:103620000100D9E7BDF802004000ADF80200BDF886
:103630000200B0F5807F16D2BDF802000520F467C5
:103640003D6005F0CBFA05203C6005F0C7FA3D600F
:1036500030680028E6D0BDF802009BF8011008434E
:103660008BF80100DEE7102005F0B8FA01250024F0
:10367000ADF802508BF80140ADF80250BDF80200E1
:10368000FF2819D9102005F0A9FAADF802508BF8DF
:103690000140ADF80250BDF80200FF2845D80024D3
:1036A00001252BE0BDF802004000ADF80200BDF896
:1036B0000200B0F5807FE5D2BDF802000520F46776
:1036C0003D6005F08BFA05203C6005F087FA3D600F
:1036D00030680028E6D0BDF802009BF801100843CE
:1036E0008BF80100DEE700BFBDF802004000ADF836
:1036F0000200BDF80200B0F5807F16D2BDF80200CE
:103700000520F4673D6005F069FA05203C6005F08E
:1037100065FA3D6030680028E6D0BDF802009BF8ED
:10372000011008438BF80100DEE7102005F056FA7F
:1037300001250024ADF802508BF80140ADF802508D
:10374000BDF80200FF2815D9102005F047FA102017
:10375000C6F8845001B0BDE8F04F05F03FBA00BF95
:10376000BDF802004000ADF80200BDF80200B0F55F
:10377000807FE9D2BDF802000520F4673D6005F0C6
:103780002DFA05203C6005F029FA3D6030680028DC
:10379000E6D0BDF802009BF8011008438BF8010049
:1037A000DEE700BF2DE9F04383B040F20814C4F215
:1037B000222440F290154FF000081020C4F2212579
:1037C000C4F8848005F00AFA40F290090127C2F299
:1037D0000009ADF8027089F80180ADF80270BDF8FB
:1037E0000200FF281AD9102005F0F8F9ADF804708E
:1037F00089F80180ADF80470BDF80400FF284CD8AA
:10380000012600272EE000BFBDF802004000ADF801
:103810000200BDF80200B0F5807FE4D2BDF80200DE
:1038200000F00100E06705202F6005F0D7F90520C2
:10383000C5F8008005F0D2F92F6020680028E3D099
:10384000BDF8020099F80110084389F80100DBE790
:10385000BDF804004000ADF80400BDF80400B0F568
:10386000807F1AD2BDF8040010F0420018BF01207A
:10387000E06705202E6005F0B1F905202F6005F006
:10388000ADF92E6020680028E2D0BDF8040099F858
:103890000110084389F80100DAE7102005F09EF9CD
:1038A00001270026ADF8067089F80160ADF80670B2
:1038B000BDF80600FF2819D9102005F08FF9ADF8E2
:1038C000087089F80160ADF80870BDF80800FF289D
:1038D00045D8002601272BE0BDF806004000ADF8D2
:1038E0000600BDF80600B0F5807FE5D2BDF8060001
:1038F0000520E6672F6005F071F905202E6005F0C0
:103900006DF92F6020680028E6D0BDF8060099F810
:103910000110084389F80100DEE700BFBDF8080088
:103920004000ADF80800BDF80800B0F5807F16D261
:10393000BDF808000520E6672F6005F04FF9052067
:103940002E6005F04BF92F6020680028E6D0BDF806
:10395000080099F80110084389F80100DEE71020FB
:1039600005F03CF901270026ADF80A7089F80160DE
:10397000ADF80A70BDF80A00FF2815D9102005F02F
:103980002DF91020C4F8847003B0BDE8F04305F0B1
:1039900025B900BFBDF80A004000ADF80A00BDF827
:1039A0000A00B0F5807FE9D2BDF80A000520E6677D
:1039B0002F6005F013F905202E6005F00FF92F6038
:1039C00020680028E6D0BDF80A0099F801100843E5
:1039D00089F80100DEE700BF2DE9F04381B040F235
:1039E0000814C4F2222440F290154FF00008102071
:1039F000C4F22125C4F8848005F0F0F840F2900963
:103A00000127C2F20009ADF8027089F80180ADF813
:103A10000270BDF80200FF281AD9102005F0DEF868
:103A2000ADF8027089F80180ADF80270BDF80200AF
:103A3000FF284CD8012600272EE000BFBDF8020069
:103A40004000ADF80200BDF80200B0F5807FE4D27E
:103A5000BDF8020000F00100E06705202F6005F0CE
:103A6000BDF80520C5F8008005F0B8F82F60206883
:103A70000028E3D0BDF8020099F80110084389F846
:103A80000100DBE7BDF802004000ADF80200BDF820
:103A90000200B0F5807F1AD2BDF8020010F043009A
:103AA00018BF0120E06705202E6005F097F805207B
:103AB0002F6005F093F82E6020680028E2D0BDF852
:103AC000020099F80110084389F80100DAE7102094
:103AD00005F084F801270026ADF8027089F801602E
:103AE000ADF80270BDF80200FF2819D9102005F0CA
:103AF00075F8ADF8027089F80160ADF80270BDF894
:103B00000200FF2847D8012600272BE0BDF802005D
:103B10004000ADF80200BDF80200B0F5807FE5D2AC
:103B2000BDF802000520E6672F6005F057F8052074
:103B30002E6005F053F82F6020680028E6D0BDF80D
:103B4000020099F80110084389F80100DEE700BF80
:103B5000BDF802004000ADF80200BDF80200B0F56B
:103B6000807F18D2BDF8020000F00100E067052058
:103B70002E6005F033F805202F6005F02FF82E6039
:103B800020680028E4D0BDF8020099F8011008432D
:103B900089F80100DCE7102005F020F80127002655
:103BA000ADF8027089F80160ADF80270BDF802004E
:103BB000FF2819D9102005F011F8ADF8027089F826
:103BC0000160ADF80270BDF80200FF2845D800265C
:103BD00001272BE0BDF802004000ADF80200BDF85F
:103BE0000200B0F5807FE5D2BDF802000520E6674F
:103BF0002F6004F0F3FF05202E6004F0EFFF2F602C
:103C000020680028E6D0BDF8020099F801100843AA
:103C100089F80100DEE700BFBDF802004000ADF802
:103C20000200BDF80200B0F5807F16D2BDF8020098
:103C30000520E6672F6004F0D1FF05202E6004F018
:103C4000CDFF2F6020680028E6D0BDF8020099F86B
:103C50000110084389F80100DEE7102004F0BEFFE0
:103C600001270026ADF8027089F80160ADF80270F6
:103C7000BDF80200FF2819D9102004F0AFFFADF8FD
:103C8000027089F80160ADF80270BDF80200FF28EB
:103C900045D8002601272BE0BDF802004000ADF812
:103CA0000200BDF80200B0F5807FE5D2BDF8020049
:103CB0000520E6672F6004F091FF05202E6004F0D8
:103CC0008DFF2F6020680028E6D0BDF8020099F82B
:103CD0000110084389F80100DEE700BFBDF80200CB
:103CE0004000ADF80200BDF80200B0F5807F16D2AA
:103CF000BDF802000520E6672F6004F06FFF052085
:103D00002E6004F06BFF2F6020680028E6D0BDF81D
:103D1000020099F80110084389F80100DEE710203D
:103D200004F05CFF01270026ADF8027089F80160FD
:103D3000ADF80270BDF80200FF2815D9102004F07C
:103D40004DFF1020C4F8847001B0BDE8F04304F0CA
:103D500045BF00BFBDF802004000ADF80200BDF84D
:103D60000200B0F5807FE9D2BDF802000520E667C9
:103D70002F6004F033FF05202E6004F02FFF2F602A
:103D800020680028E6D0BDF8020099F80110084329
:103D900089F80100DEE700BF2DE9F04381B040F271
:103DA000081440F29009C4F222244FF000080127C1
:103DB000C2F20009C4F88480ADF8027089F801806D
:103DC000ADF80270BDF8020040F29016FF28C4F270
:103DD000212619D9102004F001FFADF8027089F8EE
:103DE0000180ADF80270BDF80200FF284BD8012514
:103DF00000272DE0BDF802004000ADF80200BDF83C
:103E00000200B0F5807FE5D2BDF8020000F00100AD
:103E1000E0670520376004F0E1FE0520C6F8008069
:103E200004F0DCFE376020680028E3D0BDF8020013
:103E300099F80110084389F80100DBE7BDF802009A
:103E40004000ADF80200BDF80200B0F5807F1AD244
:103E5000BDF8020010F0440018BF0120E067052003
:103E6000356004F0BBFE0520376004F0B7FE356016
:103E700020680028E2D0BDF8020099F8011008433C
:103E800089F80100DAE7102004F0A8FE01270025D8
:103E9000ADF8027089F80150ADF80270BDF802006B
:103EA000FF2819D9102004F099FEADF8027089F8A6
:103EB0000150ADF80270BDF80200FF2847D8012577
:103EC00000272BE0BDF802004000ADF80200BDF86D
:103ED0000200B0F5807FE5D2BDF802000520E5675D
:103EE000376004F07BFE0520356004F077FE376014
:103EF00020680028E6D0BDF8020099F801100843B8
:103F000089F80100DEE700BFBDF802004000ADF80F
:103F10000200BDF80200B0F5807F18D2BDF80200A3
:103F200000F00100E0670520356004F057FE052031
:103F3000376004F053FE356020680028E4D0BDF8F7
:103F4000020099F80110084389F80100DCE710200D
:103F500004F044FE01274FF00008ADF8027089F824
:103F60000180ADF80270BDF80200FF281AD91020B8
:103F700004F034FEADF8027089F80180ADF80270EB
:103F8000BDF80200FF284AD80025012730E000BF15
:103F9000BDF802004000ADF80200BDF80200B0F527
:103FA000807FE4D2BDF8020010F0EE0018BF0120BF
:103FB000E0670520376004F011FE0520C6F8008098
:103FC00004F00CFE376020680028E1D0BDF8020044
:103FD00099F80110084389F80100D9E7BDF80200FB
:103FE0004000ADF80200BDF80200B0F5807F16D2A7
:103FF000BDF802000520E567376004F0EFFD0520FD
:10400000356004F0EBFD376020680028E6D0BDF88D
:10401000020099F80110084389F80100DEE710203A
:1040200004F0DCFD01270025ADF8027089F801508D
:10403000ADF80270BDF80200FF2819D9102004F075
:10404000CDFDADF8027089F80150ADF80270BDF8F1
:104050000200FF2845D8002501272BE0BDF802000B
:104060004000ADF80200BDF80200B0F5807FE5D257
:10407000BDF802000520E567376004F0AFFD0520BC
:10408000356004F0ABFD376020680028E6D0BDF84D
:10409000020099F80110084389F80100DEE700BF2B
:1040A000BDF802004000ADF80200BDF80200B0F516
:1040B000807F16D2BDF802000520E567376004F066
:1040C0008DFD0520356004F089FD376020680028EB
:1040D000E6D0BDF8020099F80110084389F8010004
:1040E000DEE7102004F07AFD01270025ADF802700C
:1040F00089F80150ADF80270BDF80200FF2815D90B
:10410000102004F06BFD1020C4F8847001B0BDE8ED
:10411000F04304F063BD00BFBDF802004000ADF8FD
:104120000200BDF80200B0F5807FE9D2BDF80200C0
:104130000520E567376004F051FD0520356004F087
:104140004DFD376020680028E6D0BDF8020099F8E0
:104150000110084389F80100DEE700BF2DE9F043B4
:1041600083B040F20814C4F2222440F290154FF0BC
:1041700000081020C4F22125C4F8848004F02EFD2C
:1041800040F290090127C2F20009ADF8027089F8E7
:104190000180ADF80270BDF80200FF281AD9102086
:1041A00004F01CFDADF8047089F80180ADF80470CE
:1041B000BDF80400FF284CD8012600272EE000BFE0
:1041C000BDF802004000ADF80200BDF80200B0F5F5
:1041D000807FE4D2BDF8020000F00100E067052016
:1041E0002F6004F0FBFC0520C5F8008004F0F6FC0D
:1041F0002F6020680028E3D0BDF8020099F8011074
:10420000084389F80100DBE7BDF804004000ADF881
:104210000400BDF80400B0F5807F1AD2BDF8040098
:1042200010F04D0018BF0120E06705202E6004F05B
:10423000D5FC05202F6004F0D1FC2E6020680028FA
:10424000E2D0BDF8040099F80110084389F8010094
:10425000DAE7102004F0C2FC01270026ADF8067052
:1042600089F80160ADF80670BDF80600FF2819D97D
:10427000102004F0B3FCADF8087089F80160ADF8C7
:104280000870BDF80800FF2845D8002601272BE05C
:10429000BDF806004000ADF80600BDF80600B0F518
:1042A000807FE5D2BDF806000520E6672F6004F0A8
:1042B00095FC05202E6004F091FC2F6020680028FA
:1042C000E6D0BDF8060099F80110084389F801000E
:1042D000DEE700BFBDF808004000ADF80800BDF8FB
:1042E0000800B0F5807F16D2BDF808000520E6670B
:1042F0002F6004F073FC05202E6004F06FFC2F602B
:1043000020680028E6D0BDF8080099F8011008439D
:1043100089F80100DEE7102004F060FC0127002688
:10432000ADF80A7089F80160ADF80A70BDF80A00AE
:10433000FF2815D9102004F051FC1020C4F8847017
:1043400003B0BDE8F04304F049BC00BFBDF80A006B
:104350004000ADF80A00BDF80A00B0F5807FE9D250
:10436000BDF80A0000F00100E06705202F6004F0AE
:1043700035FC05202E6004F031FC2F6020680028F9
:10438000E4D0BDF80A0099F80110084389F801004B
:10439000DCE700BF2DE9F04381B040F20814C4F21D
:1043A000222440F290154FF000081020C4F221257D
:1043B000C4F8848004F012FC40F290090127C2F294
:1043C0000009ADF8027089F80180ADF80270BDF8FF
:1043D0000200FF281AD9102004F000FCADF802708A
:1043E00089F80180ADF80270BDF80200FF284CD8B2
:1043F000012600272EE000BFBDF802004000ADF806
:104400000200BDF80200B0F5807FE4D2BDF80200E2
:1044100000F00100E06705202F6004F0DFFB0520BD
:10442000C5F8008004F0DAFB2F6020680028E3D094
:10443000BDF8020099F80110084389F80100DBE794
:10444000BDF802004000ADF80200BDF80200B0F572
:10445000807F1AD2BDF8020010F0430018BF01207F
:10446000E06705202E6004F0B9FB05202F6004F002
:10447000B5FB2E6020680028E2D0BDF8020099F854
:104480000110084389F80100DAE7102004F0A6FBC8
:1044900001270026ADF8027089F80160ADF80270BE
:1044A000BDF80200FF2819D9102004F097FBADF8E1
:1044B000027089F80160ADF80270BDF80200FF28B3
:1044C00045D8002601272BE0BDF802004000ADF8DA
:1044D0000200BDF80200B0F5807FE5D2BDF8020011
:1044E0000520E6672F6004F079FB05202E6004F0BC
:1044F00075FB2F6020680028E6D0BDF8020099F80F
:104500000110084389F80100DEE700BFBDF8020092
:104510004000ADF80200BDF80200B0F5807F16D271
:10452000BDF802000520E6672F6004F057FB052068
:104530002E6004F053FB2F6020680028E6D0BDF801
:10454000020099F80110084389F80100DEE7102005
:1045500004F044FB01274FF00008ADF8027089F821
:104560000180ADF80270BDF80200FF281AD91020B2
:1045700004F034FBADF8027089F80180ADF80270E8
:10458000BDF80200FF284ED80126002730E000BF0A
:10459000BDF802004000ADF80200BDF80200B0F521
:1045A000807FE4D2BDF8020010F05A0018BF01204D
:1045B000E06705202F6004F011FB0520C5F800809E
:1045C00004F00CFB2F6020680028E1D0BDF8020049
:1045D00099F80110084389F80100D9E7BDF80200F5
:1045E0004000ADF80200BDF80200B0F5807F1AD29D
:1045F000BDF8020010F05A0018BF0120E067052046
:104600002E6004F0EBFA05202F6004F0E7FA2E602C
:1046100020680028E2D0BDF8020099F80110084394
:1046200089F80100DAE7102004F0D8FA01274FF0EA
:104630000008ADF8027089F80180ADF80270BDF88D
:104640000200FF281AD9102004F0C8FAADF8027051
:1046500089F80180ADF80270BDF80200FF284ED83D
:104660000126002730E000BFBDF802004000ADF891
:104670000200BDF80200B0F5807FE4D2BDF8020070
:1046800010F05A0018BF0120E06705202F6004F0E9
:10469000A5FA0520C5F8008004F0A0FA2F60206874
:1046A0000028E1D0BDF8020099F80110084389F80C
:1046B0000100D9E7BDF802004000ADF80200BDF8E6
:1046C0000200B0F5807F1AD2BDF8020010F05A0047
:1046D00018BF0120E06705202E6004F07FFA052056
:1046E0002F6004F07BFA2E6020680028E2D0BDF82D
:1046F000020099F80110084389F80100DAE7102058
:1047000004F06CFA01270026ADF8027089F8016008
:10471000ADF80270BDF80200FF2815D9102004F092
:104720005DFA1020C4F8847001B0BDE8F04304F0D5
:1047300055BA00BFBDF802004000ADF80200BDF858
:104740000200B0F5807FE9D2BDF8020010F05A00F7
:1047500018BF0120E06705202F6004F03FFA052014
:104760002E6004F03BFA2F6020680028E2D0BDF8EC
:10477000020099F80110084389F80100DAE700BF48
:1047800080B5FFF70FF8FFF70DF8FFF70BF8FFF70D
:1047900023F9FFF701FBBDE88040FFF7FBBD00BF39
:1047A000B0B540F29005C2F2000540F28010EB79FE
:1047B000C2F200002C7A036040F28410C2F20000C2
:1047C0006979046040F28810C2F20000AA790160A1
:1047D00040F28C10C2F20000002402602C72C5E985
:1047E0000044FEF7EFFCB5F8030040F2B401C2F25A
:1047F0000001088040F21201C2F2000131F81420D9
:104800000134013A20FA02F2D20702D0102CF5D17D
:10481000002440F27C10C2F200000460B0BD000031
:10482000B0B5082005F060FC40F2AC15C2F20005FE
:1048300004462860082005F057FC2060606028B915
:104840004AF63170C0F6000005F084FC28680021AB
:1048500000684160B0BD00BF70B540F2A415C2F25F
:1048600000052E680A2E07DB4AF64D70C0F60000E0
:10487000BDE8704005F06EBC0446082005F034FC2D
:1048800040F2AC11C2F20001096804700A680860C5
:104890004260701C286070BDB0B540F2AC14C2F22A
:1048A00000042068D0E90010814212D00D4649680A
:1048B0008142FBD10021696005F0EEFB40F2A411BA
:1048C0002068C2F200010A6845602878013A0A604F
:1048D000B0BD02A005F03EFC0020B0BD4572203006
:1048E0003030323A20517565756520656D70747988
:1048F000210D000040F2AC10C2F200000068D0E9C7
:104900000010401A18BF0120704700BFB0B540F238
:10491000AC10C2F2000000680568686840B109A4E4
:104920002978204604F024FF6D6868680028F7D1D4
:1049300040F2A410C2F20000016804A0BDE8B0403B
:1049400004F016BF25632C2000000000517565752A
:10495000652073697A65202564200D0A0000000037
:1049600010B544F60004C4F2000401462046FDF7E9
:104970008BF800BF20464021FDF7E8F80128F9D167
:1049800020464021BDE81040FDF7E6B8F0B587B0FD
:10499000054610200121FBF72DFF4FF48020012157
:1049A000FBF734FF1020C0F214000121FBF76CFD6F
:1049B00044F6000440F20040C4F20004C1F60300D3
:1049C00004F5484606AF069030463946FBF7B8FC7A
:1049D0004FF40060ADF8180004208DF81B0030463D
:1049E0003946FBF7ADFC4FF44020029500250490BA
:1049F00002A920460395ADF81450FCF773FF20463A
:104A00004021FDF7A9F8204640F225510122FCF78C
:104A1000EFFF20460121FCF7E1FF40F22720C0F222
:104A20000310019001A8FBF711FC082005F05CFBC6
:104A300040F2AC16C2F2000604463060082005F0D1
:104A400053FB2060606028B94AF63170C0F6000060
:104A500005F080FB30680068456007B0F0BD00BF1E
:104A600070B544F60004C4F20004204640F225511B
:104A7000FDF776F8002808BF70BD2046FDF708F85E
:104A800040F2A415C2F200052E680A2E07DB4AF692
:104A90004D70C0F60000BDE8704005F05BBB0446F9
:104AA000082005F021FB40F2AC11C2F200010968B8
:104AB00004700A6808604260701C286070BD0000C5
:104AC00080B582B010200121FBF794FE42F2000075
:104AD000C1F20300019041F20000C4F2010001A9FB
:104AE000FBF72EFC02B080BD80B582B0082001210A
:104AF000FBF780FE4FF48050ADF8040048208DF89D
:104B0000070040F60040C4F2010001A9FBF718FCC1
:104B100002B080BD41F21800C4F20200016841F009
:104B20000801016040F60440C4F20100016821F46C
:104B30007F410160016841F44C510160704700BF42
:104B4000B0B540F60440C4F20100016848F22C15EB
:104B500021F4704101600168C4F2212541F4405103
:104B600001600120C5F880002968002439B1E86798
:104B7000012004F033F8C5F88040286808B12046C9
:104B8000B0BD0120012404F029F80020E867204688
:104B9000B0BD00BFB0B540F60440C4F201000168EA
:104BA00048F2A81421F4704101600168C4F2212484
:104BB00041F4405101600020206060600120012527
:104BC00004F00CF8256001206560BDE8B04004F0F9
:104BD00005B800BF70B540F60444C4F20104206873
:104BE00048F2A81520F4704020602068C4F2212506
:104BF00040F400402060012601206E6003F0EEFFCB
:104C000001202E6003F0EAFF55F87C0C50B100261D
:104C1000322E0BD20120013603F0E0FF55F87C0C58
:104C20000028F5D100202860012070BD20680126F1
:104C300020F470402060206840F440502060002440
:104C400001202C606C6003F0C9FF01202E606E60B3
:104C500003F0C4FF204670BD70B548F2A814C4F23A
:104C60002124002540F604402560C4F201000168BB
:104C7000012621F470410160016841F44051016056
:104C80000120656003F0AAFF0120266003F0A6FF63
:104C9000256070BD70B548F2A814C4F22124002527
:104CA00040F604402560C4F201000168012621F4A9
:104CB00070410160016841F440510160012066606B
:104CC00003F08CFF0120266003F088FF256070BD93
:104CD0002DE9F04140F60441C4F201010A6804469E
:104CE00022F470400860086848F2A815C4F2212533
:104CF00040F440504FF00008012700260860C5F836
:104D0000008000BFE0B2C00968600120640003F0C9
:104D100065FF01202F6003F061FF0120C5F80080CE
:104D200003F05CFF072E06F10106EBD3BDE8F0812E
:104D30002DE9F04F83B040F6044AC4F2010A9846C8
:104D4000DAF80030029223F47042CAF80020DAF850
:104D5000002048F2A815C4F2212542F44052012750
:104D6000CAF800206F6055F87C2C002A00F0BD8046
:104D7000044601200E462F6003F030FF4FF0000B79
:104D8000C5F804B055F87C0C002840F0AE80012036
:104D9000CDF804804FF0010803F020FFC5F800B003
:104DA000DAF80000002720F47040CAF80000DAF8B2
:104DB000000040F44050CAF80000C5F800B000BF41
:104DC000C4F38010686001204FEA440903F006FF35
:104DD0000120C5F8008003F001FF0120C5F800B0F4
:104DE00003F0FCFE072F07F101074C46E8D3FFF75D
:104DF000F1FEDAF80010002421F47041CAF8001026
:104E0000DAF80010002841F440514FF00108CAF8C8
:104E100000102C605DD00027F0B2C009686001204E
:104E2000760003F0DBFE0120C5F8008003F0D6FE1B
:104E300001202C6003F0D2FE072F07F10107EBD30E
:104E4000FFF7C8FE0298DDF8049080B30026012722
:104E50004FF0000B19F80B80DAF80000002420F462
:104E60007040CAF80000DAF8000040F44050CAF878
:104E700000002E605FFA88F0C009686001204FEAE8
:104E8000480803F0ABFE01202F6003F0A7FE0120CD
:104E90002E6003F0A3FE072C04F10104EAD3FFF710
:104EA00099FE20B102980BF1010B8345D2D1DAF8BB
:104EB0000000002720F47040CAF80000DAF8000073
:104EC0004FF0010840F440500024CAF800002F6061
:104ED00000E0012701206C6003F080FE0120C5F88E
:104EE0000080C5F8048003F079FE384603B0BDE8C1
:104EF000F08F00BF2DE9F04F81B040F60447C4F2B7
:104F000001079A463B68154623F470423A603A68B6
:104F100048F2A818C4F2212842F440524FF0010987
:104F20003A60C8F8049058F87C2C002A00F0EA8017
:104F3000044601200E46C8F8009003F04FFE4FF0E3
:104F4000000BC8F804B058F87C0C002840F0DA8058
:104F500001204FF0010903F041FEC8F800B03868A5
:104F6000610020F4704038603868002440F44050FC
:104F700038600F46C8F800B0009100BFF8B2C00911
:104F8000C8F8040001207F0003F028FE0120C8F8C3
:104F9000009003F023FE0120C8F800B003F01EFECD
:104FA000072C04F10104E9D3FFF714FE40F604498D
:104FB000C4F20109D9F800104FF0000B21F4704140
:104FC000C9F80010D9F80010002841F440514FF002
:104FD0000107C9F80010C8F800B000F08480002470
:104FE000F0B2C009C8F804000120760003F0F6FD15
:104FF0000120C8F8007003F0F1FD0120C8F800B0EE
:1050000003F0ECFD072C04F10104E9D3FFF7E2FD06
:10501000D9F800004E4620F47040C9F80000D9F8D5
:10502000000040F44050C9F800004FF00109C8F8F2
:10503000049058F87C0C78B10120C8F8009003F077
:10504000CDFD0024C8F8044058F87C0C20B901209C
:1050500003F0C4FDC8F800403068324620F47040C8
:1050600030603068009940F4405041F0010600275C
:1050700000241060C8F80070F0B2C009C8F804003D
:105080000120760003F0AAFD0120C8F8009003F08B
:10509000A5FD0120C8F8007003F0A0FD072C04F165
:1050A0000104E9D3FFF796FD40F60444C4F201047D
:1050B00006E000BF002000F029F80AF8010B013DCE
:1050C000E8B20128F6D008B10120F4E720684FF0DB
:1050D000000920F470402060206840F440502060B7
:1050E000C8F8009001E04FF001090120C8F804B0B1
:1050F00003F074FD0120C8F80000C8F80400012086
:1051000003F06CFD484601B0BDE8F08F2DE9F04793
:1051100040F60449C4F20109D9F80010804621F490
:105120007040C9F80000D9F8000048F2A815C4F290
:10513000212540F400404FF0000A012700260024FA
:10514000C9F800000220C5F800A003F047FD2F6059
:1051500055F87C0C002818BF012040EA46060220C2
:1051600003F03CFD072C04F10104EBD300242C6078
:10517000D9F80000B8FA88F120F47040C9F80000AE
:10518000D9F80000490940F44050C9F80000012056
:105190006960012703F022FD01202F6003F01EFD4E
:1051A000F0B22C60BDE8F0872DE9F04F81B040F6F9
:1051B0000449C4F20109D9F8002048F2A81622F4E3
:1051C0007042C9F80020D9F80020C4F2212642F428
:1051D00040524FF0010AC9F80020C6F804A056F862
:1051E0007C2C0D4680466AB10120C6F800A003F071
:1051F000F5FC0024746056F87C0C18B9012003F00B
:10520000EDFC3460D9F800004FF0000B20F4704042
:10521000C9F80000D9F80000002440F44050474687
:10522000C9F80000C6F800B0F8B2C00970600120EB
:105230007F0003F0D3FC0120C6F800A003F0CEFCF1
:105240000120C6F800B003F0C9FC072C04F10104EA
:10525000EAD3FFF7BFFCD9F800004FF0000A20F4B2
:105260007040C9F80000D9F80000012740F4405010
:105270000024C9F80000C6F800A000BFE8B2C009C9
:10528000706001206D0003F0A9FC0120376003F07D
:10529000A5FC0120C6F800A003F0A0FC072C04F137
:1052A0000104EBD3FFF796FCD9F800004FF0010A98
:1052B00020F47040C9F80000D9F8000040F44050D4
:1052C000C9F80000C6F804A056F87C0C68B10120AB
:1052D000C6F800A003F082FC0024746056F87C0C31
:1052E00018B9012003F07AFC3460D9F8000008F105
:1052F000010520F47040C9F80000D9F8000000272B
:1053000040F440500024C9F800003760E8B2C009FA
:10531000706001206D0003F061FC0120C6F800A060
:1053200003F05CFC0120376003F058FC072C04F10B
:105330000104EBD3FFF74EFC00200025FFF7E6FE4B
:10534000D9F80010044621F47041C9F80010D9F8CA
:10535000001041F44050C9F800000120356075602C
:10536000012503F03BFC01203560756003F036FC3D
:10537000204601B0BDE8F08F2DE9F04F83B040F634
:10538000044B0193C4F2010BDBF80030029223F4CA
:105390007042CBF80020DBF8002048F2A814C4F2D9
:1053A000212442F440520126CBF80020666054F8D4
:1053B0007C2C0F46814662B10120266003F00EFC72
:1053C0000025656054F87C0C18B9012003F006FC38
:1053D0002560DBF80000002520F47040CBF80000C9
:1053E000DBF800004FF0000840F44050CA46CBF80C
:1053F000000025605FFA8AF0C009606001204FEA72
:105400004A0A03F0EBFB0120266003F0E7FB0120D2
:10541000256003F0E3FBB8F1070F08F10108E9D3B9
:10542000FFF7D8FBDBF800004FF0000820F47040D5
:10543000CBF80000DBF80000012540F440500026C6
:10544000CBF80000C4F80080F8B2C0096060012009
:105450007F0003F0C3FB0120256003F0BFFB0120A8
:10546000C4F8008003F0BAFB072E06F10106EBD367
:10547000FFF7B0FBDBF800004FF0010820F47040AC
:10548000CBF80000DBF8000040F44050CBF80000FF
:10549000C4F8048054F87C0C68B10120C4F8008082
:1054A00003F09CFB0025656054F87C0C18B90120C2
:1054B00003F094FB2560DBF8000009F1010720F4FC
:1054C0007040CBF80000DBF80000002540F44050AD
:1054D0000026CBF800002560F8B2C009606001200A
:1054E0007F0003F07BFB0120C4F8008003F076FB13
:1054F0000120256003F072FB072E06F10106EBD3B5
:10550000FFF768FB02994FF0000A81B101984F4202
:10551000451E0026B7F1FF3018BF0120FFF7F6FD4A
:1055200005F8010F013706F10106F3D300E000266C
:10553000DBF80000012520F47040CBF80000DBF818
:10554000000040F44050CBF800000120C4F800A057
:10555000C4F804A003F042FB01202560656003F05D
:105560003DFBF0B203B0BDE8F08F00BF2DE9F04F76
:1055700081B040F6044B0093C4F2010BDBF800301D
:10558000914623F47042CBF80020DBF8002048F26B
:10559000A814C4F2212442F440524FF0010ACBF87F
:1055A0000020C4F804A054F87C2C0E4607466AB1CB
:1055B0000120C4F800A003F011FB0025656054F839
:1055C0007C0C18B9012003F009FB2560DBF8000012
:1055D000002520F47040CBF80000DBF800004FF00D
:1055E000000840F44050CBF800002560F8B2C00934
:1055F000606001207F0003F0F1FA0120C4F800A0F0
:1056000003F0ECFA0120256003F0E8FAB8F1070F87
:1056100008F10108EAD3FFF7DDFADBF800004FF0EC
:10562000000820F47040CBF80000DBF800000127F0
:1056300040F440500025CBF80000C4F8008000BFC3
:10564000F0B2C00960600120760003F0C7FA0120C3
:10565000276003F0C3FA0120C4F8008003F0BEFA0B
:10566000072D05F10105EBD3FFF7B4FAB9F1000FEF
:1056700030D000264FF001084FF0000A00980027B4
:1056800010F80A50DBF8000020F47040CBF800005E
:10569000DBF8000040F44050CBF80000266000BF6B
:1056A000E8B2C009606001206D0003F097FA0120A4
:1056B000C4F8008003F092FA0120266003F08EFA0D
:1056C000072F07F10107EBD3FFF784FA0AF1010A6C
:1056D000CA45D3D1DBF80000012520F47040CBF897
:1056E0000000DBF8000040F44050CBF80000002040
:1056F00020606060012003F071FA01202560656080
:1057000003F06CFA012001B0BDE8F08F10B514462B
:10571000FFF74AFD01460120217010BD80B582B01F
:105720008DF807200DF107030122FFF71FFF01206D
:1057300002B080BD2DE9F04182B0DDF820801C462A
:1057400015460E460746FFF72FFD4FF4FF71C5F1D2
:105750000702A9401319FF2525FA03F3C4F1080530
:1057600008FA05F5EDB2194325FA02F20840104394
:105770008DF807000DF10703384631460122FFF787
:10578000F5FE012002B0BDE8F08100BFF0B581B0A8
:105790001C4615460E460746FFF706FD0121A940A7
:1057A00041EA0002002C08BF20EA01028DF8032024
:1057B0000DF10303384631460122FFF7D7FE0120E1
:1057C00001B0F0BD70B582B040F26405C2F20005D0
:1057D00068680179E9B100260DF1070406E000BF11
:1057E000686801360179F2B28A4212D22A68F1B2AF
:1057F000D37A9942F4D0527D9142F1D000780122BF
:105800002346FFF777FB0028EAD04FF0FF3002B0C5
:1058100070BD002002B070BD10B540F2640EC2F23F
:10582000000EDEF80030DA7A824211D00446587D4C
:10583000A0420DD0DEF804008C460179A14207D9C0
:105840000078214601226346BDE81040FFF752BBB5
:105850004FF0FF3010BD00BF10B582B040F26404BD
:105860008020C2F200048DF80100D4E900100DF18F
:1058700001030078897C0122FFF75AFA10B14FF03A
:10588000FF341EE0642003F0BFF900208DF8010012
:10589000D4E900100DF101030078897C0122FFF7A3
:1058A00047FA10B14FF0FF340BE0D4E900100DF1CE
:1058B00001030078897D0622FFF71CFB20B14FF021
:1058C000FF34204602B010BD9DF806209DF802006E
:1058D0009DF80410042303EA820261F3410200F000
:1058E0000100111805D001292AD002290ED100206B
:1058F00027E0D4E900100DF101030078C9780122F6
:10590000FFF7F8FA40B14FF0FF34DAE736A003F0C2
:105910002FFF4FF0FF34D4E79DF8010000F00F0097
:1059200004280AD00028E2D14AF66770C0F60000C9
:1059300004F010FC4FF0FF34C3E735A004F00AFC7C
:105940000120E0744FF6FF70E081FF202074A07406
:105950004FF0FF30A0600020C4E90500E061208422
:10596000C4F8230084F8270018208DF80700D4E934
:105970000010012200788979227384F822200DF129
:1059800007030122FFF7D4F910B14FF0FF3498E775
:105990009DF80700C0082072022000F089F810B1BD
:1059A0004FF0FF348DE72A2000F0BEF810B14FF021
:1059B000FF3486E7322000F0EFF810B14FF0FF34EB
:1059C0007FE7002000F056F910B14FF0FF3478E780
:1059D000002000F09BF910B14FF0FF3471E7002078
:1059E000002400F009FA6CE7556E737570706F72E1
:1059F00074656420736F6674776172652070726F6E
:105A000064756374207265762025642E0A00000098
:105A100048616C662073656E736974697669747920
:105A2000207061727420666F756E642E0D00000028
:105A300010B582B040F26404C2F20004A17A61B3EE
:105A40000146B0F57A7F4FF0FF3006DAFA290CD024
:105A5000B1F5FA7F2AD108200AE0B1F57A7F06D0A5
:105A6000B1F5FA6F22D1182002E0002000E01020EA
:105A70008DF80700207A9DF80710B0EBD10F02D106
:105A8000002002B010BDD4E900100DF1070300782A
:105A900089790122FFF74CF918B14FF0FF3002B0BD
:105AA00010BD9DF80700C0082072002002B010BD94
:105AB00010B582B040F26404C2F20004A17A41B38E
:105AC00002384FEA700107294FF0FF302AD8DFE88B
:105AD00001F0040629082929290A002004E00820E9
